{
  "contractName": "BasicMathLib",
  "abi": [
    {
      "constant": true,
      "inputs": [
        {
          "name": "a",
          "type": "uint256"
        },
        {
          "name": "b",
          "type": "uint256"
        }
      ],
      "name": "times",
      "outputs": [
        {
          "name": "err",
          "type": "bool"
        },
        {
          "name": "res",
          "type": "uint256"
        }
      ],
      "payable": false,
      "stateMutability": "pure",
      "type": "function"
    },
    {
      "constant": true,
      "inputs": [
        {
          "name": "a",
          "type": "uint256"
        },
        {
          "name": "b",
          "type": "uint256"
        }
      ],
      "name": "dividedBy",
      "outputs": [
        {
          "name": "err",
          "type": "bool"
        },
        {
          "name": "i",
          "type": "uint256"
        }
      ],
      "payable": false,
      "stateMutability": "pure",
      "type": "function"
    },
    {
      "constant": true,
      "inputs": [
        {
          "name": "a",
          "type": "uint256"
        },
        {
          "name": "b",
          "type": "uint256"
        }
      ],
      "name": "plus",
      "outputs": [
        {
          "name": "err",
          "type": "bool"
        },
        {
          "name": "res",
          "type": "uint256"
        }
      ],
      "payable": false,
      "stateMutability": "pure",
      "type": "function"
    },
    {
      "constant": true,
      "inputs": [
        {
          "name": "a",
          "type": "uint256"
        },
        {
          "name": "b",
          "type": "uint256"
        }
      ],
      "name": "minus",
      "outputs": [
        {
          "name": "err",
          "type": "bool"
        },
        {
          "name": "res",
          "type": "uint256"
        }
      ],
      "payable": false,
      "stateMutability": "pure",
      "type": "function"
    }
  ],
  "bytecode": "0x61027d610030600b82828239805160001a6073146000811461002057610022565bfe5b5030600052607381538281f3007300000000000000000000000000000000000000003014606060405260043610610079576000357c0100000000000000000000000000000000000000000000000000000000900463ffffffff1680631d3b9edf1461007e57806366098d4f146100be578063e39bbf68146100fe578063f4f3bdc11461013e575b600080fd5b61009d600480803590602001909190803590602001909190505061017e565b60405180831515151581526020018281526020019250505060405180910390f35b6100dd60048080359060200190919080359060200190919050506101ac565b60405180831515151581526020018281526020019250505060405180910390f35b61011d60048080359060200190919080359060200190919050506101df565b60405180831515151581526020018281526020019250505060405180910390f35b61015d600480803590602001909190803590602001909190505061021b565b60405180831515151581526020018281526020019250505060405180910390f35b600080828402905083838204148315176000811461019b576101a4565b60019250600091505b509250929050565b600080828401905082811483821117848483031416600081146101ce576101d7565b60019250600091505b509250929050565b60008060008315600081146101fb576001935060009250610212565b848604915060405182602082015260208101519350505b50509250929050565b6000808284039050600184821485831017858584011416146000811461024057610249565b60019250600091505b5092509290505600a165627a7a723058203ed88fb758b39682f794a2d5ed275dbb96ee3eb5c7c2c359f07a5b7bea4fad150029",
  "source": "pragma solidity 0.4.21;\n\n/**\n * @title Basic Math Library\n * @author Modular, Inc\n *\n * version 1.2.5\n * Copyright (c) 2017 Modular, Inc\n * The MIT License (MIT)\n * https://github.com/Modular-Network/ethereum-libraries/blob/master/LICENSE\n *\n * The Basic Math Library is inspired by the Safe Math library written by\n * OpenZeppelin at https://github.com/OpenZeppelin/zeppelin-solidity/ .\n * Modular provides smart contract services and security reviews for contract\n * deployments in addition to working on open source projects in the Ethereum\n * community. Our purpose is to test, document, and deploy reusable code onto the\n * blockchain and improve both security and usability. We also educate non-profits,\n * schools, and other community members about the application of blockchain\n * technology.\n * For further information: modular.network, openzeppelin.org\n *\n * THE SOFTWARE IS PROVIDED \"AS IS\", WITHOUT WARRANTY OF ANY KIND, EXPRESS\n * OR IMPLIED, INCLUDING BUT NOT LIMITED TO THE WARRANTIES OF\n * MERCHANTABILITY, FITNESS FOR A PARTICULAR PURPOSE AND NONINFRINGEMENT.\n * IN NO EVENT SHALL THE AUTHORS OR COPYRIGHT HOLDERS BE LIABLE FOR ANY\n * CLAIM, DAMAGES OR OTHER LIABILITY, WHETHER IN AN ACTION OF CONTRACT,\n * TORT OR OTHERWISE, ARISING FROM, OUT OF OR IN CONNECTION WITH THE\n * SOFTWARE OR THE USE OR OTHER DEALINGS IN THE SOFTWARE.\n */\n\nlibrary BasicMathLib {\n  /// @dev Multiplies two numbers and checks for overflow before returning.\n  /// Does not throw.\n  /// @param a First number\n  /// @param b Second number\n  /// @return err False normally, or true if there is overflow\n  /// @return res The product of a and b, or 0 if there is overflow\n  function times(uint256 a, uint256 b) public pure returns (bool err,uint256 res) {\n    assembly{\n      res := mul(a,b)\n      switch or(iszero(b), eq(div(res,b), a))\n      case 0 {\n        err := 1\n        res := 0\n      }\n    }\n  }\n\n  /// @dev Divides two numbers but checks for 0 in the divisor first.\n  /// Does not throw.\n  /// @param a First number\n  /// @param b Second number\n  /// @return err False normally, or true if `b` is 0\n  /// @return res The quotient of a and b, or 0 if `b` is 0\n  function dividedBy(uint256 a, uint256 b) public pure returns (bool err,uint256 i) {\n    uint256 res;\n    assembly{\n      switch iszero(b)\n      case 0 {\n        res := div(a,b)\n        let loc := mload(0x40)\n        mstore(add(loc,0x20),res)\n        i := mload(add(loc,0x20))\n      }\n      default {\n        err := 1\n        i := 0\n      }\n    }\n  }\n\n  /// @dev Adds two numbers and checks for overflow before returning.\n  /// Does not throw.\n  /// @param a First number\n  /// @param b Second number\n  /// @return err False normally, or true if there is overflow\n  /// @return res The sum of a and b, or 0 if there is overflow\n  function plus(uint256 a, uint256 b) public pure returns (bool err, uint256 res) {\n    assembly{\n      res := add(a,b)\n      switch and(eq(sub(res,b), a), or(gt(res,b),eq(res,b)))\n      case 0 {\n        err := 1\n        res := 0\n      }\n    }\n  }\n\n  /// @dev Subtracts two numbers and checks for underflow before returning.\n  /// Does not throw but rather logs an Err event if there is underflow.\n  /// @param a First number\n  /// @param b Second number\n  /// @return err False normally, or true if there is underflow\n  /// @return res The difference between a and b, or 0 if there is underflow\n  function minus(uint256 a, uint256 b) public pure returns (bool err,uint256 res) {\n    assembly{\n      res := sub(a,b)\n      switch eq(and(eq(add(res,b), a), or(lt(res,a), eq(res,a))), 1)\n      case 0 {\n        err := 1\n        res := 0\n      }\n    }\n  }\n}\n",
  "sourcePath": "ethereum-libraries-basic-math/contracts/BasicMathLib.sol",
  "compiler": {
    "name": "solc",
    "version": "0.4.21+commit.dfe3193c.Emscripten.clang"
  },
  "schemaVersion": "2.0.0",
  "updatedAt": "2018-05-14T23:47:05.315Z"
}