{
  "contractName": "InteractiveCrowdsaleTestContract",
  "abi": [
    {
      "inputs": [
        {
          "name": "owner",
          "type": "address"
        },
        {
          "name": "priceBonusPercent",
          "type": "uint256"
        },
        {
          "name": "minimumRaise",
          "type": "uint256"
        },
        {
          "name": "tokensPerEth",
          "type": "uint256"
        },
        {
          "name": "startTime",
          "type": "uint256"
        },
        {
          "name": "endWithdrawalTime",
          "type": "uint256"
        },
        {
          "name": "endTime",
          "type": "uint256"
        },
        {
          "name": "percentBeingSold",
          "type": "uint8"
        },
        {
          "name": "tokenName",
          "type": "string"
        },
        {
          "name": "tokenSymbol",
          "type": "string"
        },
        {
          "name": "tokenDecimals",
          "type": "uint8"
        }
      ],
      "payable": false,
      "stateMutability": "nonpayable",
      "type": "constructor"
    },
    {
      "payable": false,
      "stateMutability": "nonpayable",
      "type": "fallback"
    },
    {
      "anonymous": false,
      "inputs": [
        {
          "indexed": false,
          "name": "amount",
          "type": "uint256"
        },
        {
          "indexed": false,
          "name": "Msg",
          "type": "string"
        }
      ],
      "name": "LogErrorMsg",
      "type": "event"
    },
    {
      "constant": false,
      "inputs": [
        {
          "name": "_personalValuation",
          "type": "uint256"
        },
        {
          "name": "_listPredict",
          "type": "uint256"
        }
      ],
      "name": "submitBid",
      "outputs": [
        {
          "name": "",
          "type": "bool"
        }
      ],
      "payable": true,
      "stateMutability": "payable",
      "type": "function"
    },
    {
      "constant": false,
      "inputs": [],
      "name": "withdrawBid",
      "outputs": [
        {
          "name": "",
          "type": "bool"
        }
      ],
      "payable": false,
      "stateMutability": "nonpayable",
      "type": "function"
    },
    {
      "constant": false,
      "inputs": [],
      "name": "withdrawLeftoverWei",
      "outputs": [
        {
          "name": "",
          "type": "bool"
        }
      ],
      "payable": false,
      "stateMutability": "nonpayable",
      "type": "function"
    },
    {
      "constant": false,
      "inputs": [],
      "name": "retrieveFinalResult",
      "outputs": [
        {
          "name": "",
          "type": "bool"
        }
      ],
      "payable": false,
      "stateMutability": "nonpayable",
      "type": "function"
    },
    {
      "constant": false,
      "inputs": [],
      "name": "finalizeSale",
      "outputs": [
        {
          "name": "",
          "type": "bool"
        }
      ],
      "payable": false,
      "stateMutability": "nonpayable",
      "type": "function"
    },
    {
      "constant": false,
      "inputs": [],
      "name": "withdrawOwnerEth",
      "outputs": [
        {
          "name": "",
          "type": "bool"
        }
      ],
      "payable": false,
      "stateMutability": "nonpayable",
      "type": "function"
    },
    {
      "constant": true,
      "inputs": [],
      "name": "crowdsaleIsActive",
      "outputs": [
        {
          "name": "",
          "type": "bool"
        }
      ],
      "payable": false,
      "stateMutability": "view",
      "type": "function"
    },
    {
      "constant": true,
      "inputs": [],
      "name": "isFinalized",
      "outputs": [
        {
          "name": "",
          "type": "bool"
        }
      ],
      "payable": false,
      "stateMutability": "view",
      "type": "function"
    },
    {
      "constant": true,
      "inputs": [],
      "name": "getOwner",
      "outputs": [
        {
          "name": "",
          "type": "address"
        }
      ],
      "payable": false,
      "stateMutability": "view",
      "type": "function"
    },
    {
      "constant": true,
      "inputs": [],
      "name": "getTokensPerEth",
      "outputs": [
        {
          "name": "",
          "type": "uint256"
        }
      ],
      "payable": false,
      "stateMutability": "view",
      "type": "function"
    },
    {
      "constant": true,
      "inputs": [],
      "name": "getStartTime",
      "outputs": [
        {
          "name": "",
          "type": "uint256"
        }
      ],
      "payable": false,
      "stateMutability": "view",
      "type": "function"
    },
    {
      "constant": true,
      "inputs": [],
      "name": "getEndTime",
      "outputs": [
        {
          "name": "",
          "type": "uint256"
        }
      ],
      "payable": false,
      "stateMutability": "view",
      "type": "function"
    },
    {
      "constant": true,
      "inputs": [],
      "name": "getMinimumRaise",
      "outputs": [
        {
          "name": "",
          "type": "uint256"
        }
      ],
      "payable": false,
      "stateMutability": "view",
      "type": "function"
    },
    {
      "constant": true,
      "inputs": [],
      "name": "getEndWithdrawlTime",
      "outputs": [
        {
          "name": "",
          "type": "uint256"
        }
      ],
      "payable": false,
      "stateMutability": "view",
      "type": "function"
    },
    {
      "constant": true,
      "inputs": [],
      "name": "getCommittedCapital",
      "outputs": [
        {
          "name": "",
          "type": "uint256"
        }
      ],
      "payable": false,
      "stateMutability": "view",
      "type": "function"
    },
    {
      "constant": true,
      "inputs": [
        {
          "name": "_buyer",
          "type": "address"
        }
      ],
      "name": "getContribution",
      "outputs": [
        {
          "name": "",
          "type": "uint256"
        }
      ],
      "payable": false,
      "stateMutability": "view",
      "type": "function"
    },
    {
      "constant": true,
      "inputs": [
        {
          "name": "_buyer",
          "type": "address"
        }
      ],
      "name": "getLeftoverWei",
      "outputs": [
        {
          "name": "",
          "type": "uint256"
        }
      ],
      "payable": false,
      "stateMutability": "view",
      "type": "function"
    },
    {
      "constant": true,
      "inputs": [
        {
          "name": "_bidder",
          "type": "address"
        }
      ],
      "name": "getPersonalCap",
      "outputs": [
        {
          "name": "",
          "type": "uint256"
        }
      ],
      "payable": false,
      "stateMutability": "view",
      "type": "function"
    },
    {
      "constant": true,
      "inputs": [
        {
          "name": "_bidder",
          "type": "address"
        }
      ],
      "name": "getPrice",
      "outputs": [
        {
          "name": "",
          "type": "uint256"
        }
      ],
      "payable": false,
      "stateMutability": "view",
      "type": "function"
    },
    {
      "constant": true,
      "inputs": [],
      "name": "getPercentBeingSold",
      "outputs": [
        {
          "name": "",
          "type": "uint256"
        }
      ],
      "payable": false,
      "stateMutability": "view",
      "type": "function"
    },
    {
      "constant": true,
      "inputs": [],
      "name": "getCurrentBucket",
      "outputs": [
        {
          "name": "",
          "type": "uint256"
        }
      ],
      "payable": false,
      "stateMutability": "view",
      "type": "function"
    },
    {
      "constant": true,
      "inputs": [],
      "name": "getTotalValuation",
      "outputs": [
        {
          "name": "",
          "type": "uint256"
        }
      ],
      "payable": false,
      "stateMutability": "view",
      "type": "function"
    },
    {
      "constant": true,
      "inputs": [],
      "name": "getTokenAddress",
      "outputs": [
        {
          "name": "",
          "type": "address"
        }
      ],
      "payable": false,
      "stateMutability": "view",
      "type": "function"
    },
    {
      "constant": true,
      "inputs": [
        {
          "name": "bucket",
          "type": "uint256"
        }
      ],
      "name": "getValueCommitement",
      "outputs": [
        {
          "name": "",
          "type": "uint256"
        }
      ],
      "payable": false,
      "stateMutability": "view",
      "type": "function"
    },
    {
      "constant": true,
      "inputs": [],
      "name": "getOwnerBalance",
      "outputs": [
        {
          "name": "",
          "type": "uint256"
        }
      ],
      "payable": false,
      "stateMutability": "view",
      "type": "function"
    }
  ],
  "bytecode": "0x606060405234156200001057600080fd5b604051620013863803806200138683398101604052808051906020019091908051906020019091908051906020019091908051906020019091908051906020019091908051906020019091908051906020019091908051906020019091908051820191906020018051820191906020018051906020019091905050620000c38b8b8b8b8b8b8b8b8b8b8b6000620000d46401000000000262000d8417909b9a999897969594939291906401000000009004565b505050505050505050505062000358565b60008c60000160009054906101000a900473ffffffffffffffffffffffffffffffffffffffff1673ffffffffffffffffffffffffffffffffffffffff161415156200011e57600080fd5b60008b73ffffffffffffffffffffffffffffffffffffffff161115156200014457600080fd5b84861015156200015357600080fd5b86861115156200016257600080fd5b6000891115156200017257600080fd5b60008460ff161115156200018557600080fd5b60648460ff16111515156200019957600080fd5b60008a111515620001a957600080fd5b8a8c60000160006101000a81548173ffffffffffffffffffffffffffffffffffffffff021916908373ffffffffffffffffffffffffffffffffffffffff160217905550898c601a0181905550888c60180181905550878c60010181905550868c60020181905550858c60130181905550848c60030181905550838c60190160006101000a81548160ff021916908360ff160217905550828c600b0160030190805190602001906200025c929190620002a9565b50818c600b0160040190805190602001906200027a929190620002a9565b50808c600b0160070160146101000a81548160ff021916908360ff160217905550505050505050505050505050565b828054600181600116156101000203166002900490600052602060002090601f016020900481019282601f10620002ec57805160ff19168380011785556200031d565b828001600101855582156200031d579182015b828111156200031c578251825591602001919060010190620002ff565b5b5090506200032c919062000330565b5090565b6200035591905b808211156200035157600081600090555060010162000337565b5090565b90565b61101e80620003686000396000f300606060405260043610610149576000357c0100000000000000000000000000000000000000000000000000000000900463ffffffff1680630c1ca1ba146101c75780630f1cf1b3146101f457806310fe9ae81461021d57806321eff7fc1461027257806337271cc7146102bf5780633dc3a551146102ec5780633edb13e314610315578063413100e01461033e57806341976e091461038b578063439f5ac2146103d857806358a687ec14610401578063590791f21461042e5780636893f63f146104575780638467456b14610480578063893d20e8146104a95780638d4e4083146104fe5780639276659f1461052b57806396223396146105785780639e8e6577146105af5780639fac6ddc146105dc578063a3c0a47714610609578063b821da1b14610636578063c828371e1461066f578063cd4c4c0c14610698578063cf706205146106c1575b341561015457600080fd5b7f8756f3e78da606244d7d8c9563ce2678f294db7c57afce515849e03d5eec6c3a600060405180828152602001806020018281038252601a8152602001807f446964206e6f742073656e6420636f72726563742064617461210000000000008152506020019250505060405180910390a1005b34156101d257600080fd5b6101da6106ea565b604051808215151515815260200191505060405180910390f35b34156101ff57600080fd5b610207610774565b6040518082815260200191505060405180910390f35b341561022857600080fd5b610230610780565b604051808273ffffffffffffffffffffffffffffffffffffffff1673ffffffffffffffffffffffffffffffffffffffff16815260200191505060405180910390f35b341561027d57600080fd5b6102a9600480803573ffffffffffffffffffffffffffffffffffffffff169060200190919050506107ac565b6040518082815260200191505060405180910390f35b34156102ca57600080fd5b6102d26107f7565b604051808215151515815260200191505060405180910390f35b34156102f757600080fd5b6102ff610881565b6040518082815260200191505060405180910390f35b341561032057600080fd5b61032861088d565b6040518082815260200191505060405180910390f35b341561034957600080fd5b610375600480803573ffffffffffffffffffffffffffffffffffffffff16906020019091905050610899565b6040518082815260200191505060405180910390f35b341561039657600080fd5b6103c2600480803573ffffffffffffffffffffffffffffffffffffffff169060200190919050506108e4565b6040518082815260200191505060405180910390f35b34156103e357600080fd5b6103eb61092f565b6040518082815260200191505060405180910390f35b341561040c57600080fd5b61041461093b565b604051808215151515815260200191505060405180910390f35b341561043957600080fd5b6104416109c5565b6040518082815260200191505060405180910390f35b341561046257600080fd5b61046a6109d1565b6040518082815260200191505060405180910390f35b341561048b57600080fd5b6104936109dd565b6040518082815260200191505060405180910390f35b34156104b457600080fd5b6104bc6109e9565b604051808273ffffffffffffffffffffffffffffffffffffffff1673ffffffffffffffffffffffffffffffffffffffff16815260200191505060405180910390f35b341561050957600080fd5b610511610a15565b604051808215151515815260200191505060405180910390f35b341561053657600080fd5b610562600480803573ffffffffffffffffffffffffffffffffffffffff16906020019091905050610a2e565b6040518082815260200191505060405180910390f35b341561058357600080fd5b6105996004808035906020019091905050610aee565b6040518082815260200191505060405180910390f35b34156105ba57600080fd5b6105c2610b0d565b604051808215151515815260200191505060405180910390f35b34156105e757600080fd5b6105ef610b97565b604051808215151515815260200191505060405180910390f35b341561061457600080fd5b61061c610c21565b604051808215151515815260200191505060405180910390f35b6106556004808035906020019091908035906020019091905050610cab565b604051808215151515815260200191505060405180910390f35b341561067a57600080fd5b610682610d50565b6040518082815260200191505060405180910390f35b34156106a357600080fd5b6106ab610d5c565b6040518082815260200191505060405180910390f35b34156106cc57600080fd5b6106d4610d68565b6040518082815260200191505060405180910390f35b60008073__InteractiveCrowdsaleLib_______________63baa2530090916040518263ffffffff167c01000000000000000000000000000000000000000000000000000000000281526004018082815260200191505060206040518083038186803b151561075857600080fd5b5af4151561076557600080fd5b50505060405180519050905090565b60008060150154905090565b60008060090160009054906101000a900473ffffffffffffffffffffffffffffffffffffffff16905090565b60008060060160008373ffffffffffffffffffffffffffffffffffffffff1673ffffffffffffffffffffffffffffffffffffffff168152602001908152602001600020549050919050565b60008073__InteractiveCrowdsaleLib_______________630671860490916040518263ffffffff167c01000000000000000000000000000000000000000000000000000000000281526004018082815260200191505060206040518083038186803b151561086557600080fd5b5af4151561087257600080fd5b50505060405180519050905090565b60008060130154905090565b60008060180154905090565b60008060080160008373ffffffffffffffffffffffffffffffffffffffff1673ffffffffffffffffffffffffffffffffffffffff168152602001908152602001600020549050919050565b600080601c0160008373ffffffffffffffffffffffffffffffffffffffff1673ffffffffffffffffffffffffffffffffffffffff168152602001908152602001600020549050919050565b60008060030154905090565b60008073__InteractiveCrowdsaleLib_______________6345ea578090916040518263ffffffff167c01000000000000000000000000000000000000000000000000000000000281526004018082815260200191505060206040518083038186803b15156109a957600080fd5b5af415156109b657600080fd5b50505060405180519050905090565b60008060040154905090565b60008060010154905090565b60008060140154905090565b60008060000160009054906101000a900473ffffffffffffffffffffffffffffffffffffffff16905090565b600080601b0160009054906101000a900460ff16905090565b60008073__InteractiveCrowdsaleLib_______________631fc4db989091846040518363ffffffff167c0100000000000000000000000000000000000000000000000000000000028152600401808381526020018273ffffffffffffffffffffffffffffffffffffffff1673ffffffffffffffffffffffffffffffffffffffff1681526020019250505060206040518083038186803b1515610ad057600080fd5b5af41515610add57600080fd5b505050604051805190509050919050565b600080601d016000838152602001908152602001600020549050919050565b60008073__InteractiveCrowdsaleLib_______________6352bfb6e090916040518263ffffffff167c01000000000000000000000000000000000000000000000000000000000281526004018082815260200191505060206040518083038186803b1515610b7b57600080fd5b5af41515610b8857600080fd5b50505060405180519050905090565b60008073__InteractiveCrowdsaleLib_______________63af7d127190916040518263ffffffff167c01000000000000000000000000000000000000000000000000000000000281526004018082815260200191505060206040518083038186803b1515610c0557600080fd5b5af41515610c1257600080fd5b50505060405180519050905090565b60008073__InteractiveCrowdsaleLib_______________635385fbcf90916040518263ffffffff167c01000000000000000000000000000000000000000000000000000000000281526004018082815260200191505060206040518083038186803b1515610c8f57600080fd5b5af41515610c9c57600080fd5b50505060405180519050905090565b60008073__InteractiveCrowdsaleLib_______________632190127c90913486866040518563ffffffff167c01000000000000000000000000000000000000000000000000000000000281526004018085815260200184815260200183815260200182815260200194505050505060206040518083038186803b1515610d3157600080fd5b5af41515610d3e57600080fd5b50505060405180519050905092915050565b60008060020154905090565b60008060160154905090565b60008060190160009054906101000a900460ff1660ff16905090565b60008c60000160009054906101000a900473ffffffffffffffffffffffffffffffffffffffff1673ffffffffffffffffffffffffffffffffffffffff16141515610dcd57600080fd5b60008b73ffffffffffffffffffffffffffffffffffffffff16111515610df257600080fd5b8486101515610e0057600080fd5b8686111515610e0e57600080fd5b600089111515610e1d57600080fd5b60008460ff16111515610e2f57600080fd5b60648460ff1611151515610e4257600080fd5b60008a111515610e5157600080fd5b8a8c60000160006101000a81548173ffffffffffffffffffffffffffffffffffffffff021916908373ffffffffffffffffffffffffffffffffffffffff160217905550898c601a0181905550888c60180181905550878c60010181905550868c60020181905550858c60130181905550848c60030181905550838c60190160006101000a81548160ff021916908360ff160217905550828c600b016003019080519060200190610f02929190610f4d565b50818c600b016004019080519060200190610f1e929190610f4d565b50808c600b0160070160146101000a81548160ff021916908360ff160217905550505050505050505050505050565b828054600181600116156101000203166002900490600052602060002090601f016020900481019282601f10610f8e57805160ff1916838001178555610fbc565b82800160010185558215610fbc579182015b82811115610fbb578251825591602001919060010190610fa0565b5b509050610fc99190610fcd565b5090565b610fef91905b80821115610feb576000816000905550600101610fd3565b5090565b905600a165627a7a72305820228d177fcc32cb64fa468664c848ba9b38adbef4947d7152769bf2cd0eb0ee370029",
  "source": "pragma solidity ^0.4.18;\n\n/****************\n*\n*  Test contract for tesing libraries on networks\n*\n*****************/\n\nimport \"./InteractiveCrowdsaleLib.sol\";\n\ncontract InteractiveCrowdsaleTestContract {\n  using InteractiveCrowdsaleLib for InteractiveCrowdsaleLib.InteractiveCrowdsaleStorage;\n\n  InteractiveCrowdsaleLib.InteractiveCrowdsaleStorage sale;\n\n  event LogErrorMsg(uint256 amount, string Msg);\n\n  function InteractiveCrowdsaleTestContract(\n    address owner,\n    uint256 priceBonusPercent,\n    uint256 minimumRaise,\n    uint256 tokensPerEth,\n    uint256 startTime,\n    uint256 endWithdrawalTime,\n    uint256 endTime,\n    uint8 percentBeingSold,\n    string tokenName,\n    string tokenSymbol,\n    uint8 tokenDecimals) public\n  {\n  \tsale.init(owner,\n              priceBonusPercent,\n              minimumRaise,\n              tokensPerEth,\n              startTime,\n              endWithdrawalTime,\n              endTime,\n              percentBeingSold,\n              tokenName,\n              tokenSymbol,\n              tokenDecimals);\n  }\n\n  function () public {\n    LogErrorMsg(0, 'Did not send correct data!');\n  }\n\n  function submitBid(uint256 _personalValuation, uint256 _listPredict) payable public returns (bool) {\n    return sale.submitBid(msg.value, _personalValuation, _listPredict);\n  }\n\n  function withdrawBid() public returns (bool) {\n    return sale.withdrawBid();\n  }\n\n  function withdrawLeftoverWei() public returns (bool) {\n    return sale.withdrawLeftoverWei();\n  }\n\n  function retrieveFinalResult() public returns (bool) {\n    return sale.retrieveFinalResult();\n  }\n\n  function finalizeSale() public returns (bool) {\n    return sale.finalizeSale();\n  }\n\n  function withdrawOwnerEth() public returns (bool) {\n  \treturn sale.withdrawOwnerEth();\n  }\n\n  function crowdsaleIsActive() public view returns (bool) {\n  \treturn sale.crowdsaleIsActive();\n  }\n\n  function isFinalized() public view returns (bool) {\n  \treturn sale.isFinalized;\n  }\n\n  function getOwner() public view returns (address) {\n    return sale.owner;\n  }\n\n  function getTokensPerEth() public view returns (uint256) {\n    return sale.tokensPerEth;\n  }\n\n  function getStartTime() public view returns (uint256) {\n    return sale.startTime;\n  }\n\n  function getEndTime() public view returns (uint256) {\n    return sale.endTime;\n  }\n\n  function getMinimumRaise() public view returns (uint256) {\n    return sale.minimumRaise;\n  }\n\n  function getEndWithdrawlTime() public view returns (uint256) {\n    return sale.endWithdrawalTime;\n  }\n\n  function getCommittedCapital() public view returns (uint256) {\n    return sale.valueCommitted;\n  }\n\n  function getContribution(address _buyer) public view returns (uint256) {\n    return sale.hasContributed[_buyer];\n  }\n\n  function getLeftoverWei(address _buyer) public view returns (uint256) {\n    return sale.leftoverWei[_buyer];\n  }\n\n  function getPersonalCap(address _bidder) public view returns (uint256) {\n    return sale.getPersonalCap(_bidder);\n  }\n\n  function getPrice(address _bidder) public view returns (uint256) {\n    return sale.pricePurchasedAt[_bidder];\n  }\n\n  function getPercentBeingSold() public view returns (uint256) {\n    return sale.percentBeingSold;\n  }\n\n  function getCurrentBucket() public view returns (uint256) {\n    return sale.currentBucket;\n  }\n\n  function getTotalValuation() public view returns (uint256) {\n    return sale.totalValuation;\n  }\n\n  function getTokenAddress() public view returns (address) {\n    return address(sale.token);\n  }\n\n  function getValueCommitement(uint256 bucket) public view returns (uint256) {\n    return sale.valuationSums[bucket];\n  }\n\n  function getOwnerBalance() public view returns (uint256) {\n    /* Q: CrowdsaleStorage.ownerBalance is not public\n      does this work?\n      A: Yes, but it doesn't use the lib on-chain. The bytecode is actually included in this contract.\n     */\n    return sale.ownerBalance;\n  }\n}\n",
  "sourcePath": "/Users/hackdom/Projects/ethereum-libraries-iico/contracts/InteractiveCrowdsaleTestContract.sol",
  "compiler": {
    "name": "solc",
    "version": "0.4.21+commit.dfe3193c.Emscripten.clang"
  },
  "schemaVersion": "2.0.0",
  "updatedAt": "2018-05-14T23:47:05.313Z"
}