{
  "contractName": "InteractiveCrowdsaleLib",
  "abi": [
    {
      "anonymous": false,
      "inputs": [
        {
          "indexed": true,
          "name": "_bidder",
          "type": "address"
        },
        {
          "indexed": false,
          "name": "Amount",
          "type": "uint256"
        }
      ],
      "name": "LogTokensWithdrawn",
      "type": "event"
    },
    {
      "anonymous": false,
      "inputs": [
        {
          "indexed": true,
          "name": "_bidder",
          "type": "address"
        },
        {
          "indexed": false,
          "name": "Amount",
          "type": "uint256"
        }
      ],
      "name": "LogWeiWithdrawn",
      "type": "event"
    },
    {
      "anonymous": false,
      "inputs": [
        {
          "indexed": true,
          "name": "owner",
          "type": "address"
        },
        {
          "indexed": false,
          "name": "amount",
          "type": "uint256"
        },
        {
          "indexed": false,
          "name": "Msg",
          "type": "string"
        }
      ],
      "name": "LogOwnerEthWithdrawn",
      "type": "event"
    },
    {
      "anonymous": false,
      "inputs": [
        {
          "indexed": true,
          "name": "bidder",
          "type": "address"
        },
        {
          "indexed": false,
          "name": "amount",
          "type": "uint256"
        },
        {
          "indexed": false,
          "name": "personalValuation",
          "type": "uint256"
        }
      ],
      "name": "LogBidAccepted",
      "type": "event"
    },
    {
      "anonymous": false,
      "inputs": [
        {
          "indexed": true,
          "name": "bidder",
          "type": "address"
        },
        {
          "indexed": false,
          "name": "amount",
          "type": "uint256"
        },
        {
          "indexed": false,
          "name": "personalValuation",
          "type": "uint256"
        }
      ],
      "name": "LogBidWithdrawn",
      "type": "event"
    },
    {
      "anonymous": false,
      "inputs": [
        {
          "indexed": true,
          "name": "bidder",
          "type": "address"
        },
        {
          "indexed": false,
          "name": "personalValuation",
          "type": "uint256"
        }
      ],
      "name": "LogBidRemoved",
      "type": "event"
    },
    {
      "anonymous": false,
      "inputs": [
        {
          "indexed": false,
          "name": "amount",
          "type": "uint256"
        },
        {
          "indexed": false,
          "name": "Msg",
          "type": "string"
        }
      ],
      "name": "LogErrorMsg",
      "type": "event"
    },
    {
      "anonymous": false,
      "inputs": [
        {
          "indexed": false,
          "name": "amount",
          "type": "uint256"
        },
        {
          "indexed": false,
          "name": "Msg",
          "type": "string"
        }
      ],
      "name": "LogTokenPriceChange",
      "type": "event"
    },
    {
      "anonymous": false,
      "inputs": [
        {
          "indexed": false,
          "name": "bucket",
          "type": "uint256"
        },
        {
          "indexed": false,
          "name": "valuation",
          "type": "uint256"
        },
        {
          "indexed": false,
          "name": "committed",
          "type": "uint256"
        }
      ],
      "name": "BucketAndValuationAndCommitted",
      "type": "event"
    },
    {
      "constant": false,
      "inputs": [
        {
          "name": "self",
          "type": "InteractiveCrowdsaleLib.InteractiveCrowdsaleStorage storage"
        },
        {
          "name": "_amount",
          "type": "uint256"
        },
        {
          "name": "_personalCap",
          "type": "uint256"
        },
        {
          "name": "_valuePredict",
          "type": "uint256"
        }
      ],
      "name": "submitBid",
      "outputs": [
        {
          "name": "",
          "type": "bool"
        }
      ],
      "payable": false,
      "stateMutability": "nonpayable",
      "type": "function"
    },
    {
      "constant": false,
      "inputs": [
        {
          "name": "self",
          "type": "InteractiveCrowdsaleLib.InteractiveCrowdsaleStorage storage"
        }
      ],
      "name": "withdrawBid",
      "outputs": [
        {
          "name": "",
          "type": "bool"
        }
      ],
      "payable": false,
      "stateMutability": "nonpayable",
      "type": "function"
    },
    {
      "constant": false,
      "inputs": [
        {
          "name": "self",
          "type": "InteractiveCrowdsaleLib.InteractiveCrowdsaleStorage storage"
        }
      ],
      "name": "finalizeSale",
      "outputs": [
        {
          "name": "",
          "type": "bool"
        }
      ],
      "payable": false,
      "stateMutability": "nonpayable",
      "type": "function"
    },
    {
      "constant": false,
      "inputs": [
        {
          "name": "self",
          "type": "InteractiveCrowdsaleLib.InteractiveCrowdsaleStorage storage"
        }
      ],
      "name": "retrieveFinalResult",
      "outputs": [
        {
          "name": "",
          "type": "bool"
        }
      ],
      "payable": false,
      "stateMutability": "nonpayable",
      "type": "function"
    },
    {
      "constant": false,
      "inputs": [
        {
          "name": "self",
          "type": "InteractiveCrowdsaleLib.InteractiveCrowdsaleStorage storage"
        }
      ],
      "name": "withdrawTokens",
      "outputs": [
        {
          "name": "",
          "type": "bool"
        }
      ],
      "payable": false,
      "stateMutability": "nonpayable",
      "type": "function"
    },
    {
      "constant": false,
      "inputs": [
        {
          "name": "self",
          "type": "InteractiveCrowdsaleLib.InteractiveCrowdsaleStorage storage"
        }
      ],
      "name": "withdrawLeftoverWei",
      "outputs": [
        {
          "name": "",
          "type": "bool"
        }
      ],
      "payable": false,
      "stateMutability": "nonpayable",
      "type": "function"
    },
    {
      "constant": false,
      "inputs": [
        {
          "name": "self",
          "type": "InteractiveCrowdsaleLib.InteractiveCrowdsaleStorage storage"
        }
      ],
      "name": "withdrawOwnerEth",
      "outputs": [
        {
          "name": "",
          "type": "bool"
        }
      ],
      "payable": false,
      "stateMutability": "nonpayable",
      "type": "function"
    },
    {
      "constant": true,
      "inputs": [
        {
          "name": "self",
          "type": "InteractiveCrowdsaleLib.InteractiveCrowdsaleStorage storage"
        }
      ],
      "name": "crowdsaleIsActive",
      "outputs": [
        {
          "name": "",
          "type": "bool"
        }
      ],
      "payable": false,
      "stateMutability": "view",
      "type": "function"
    },
    {
      "constant": true,
      "inputs": [
        {
          "name": "self",
          "type": "InteractiveCrowdsaleLib.InteractiveCrowdsaleStorage storage"
        }
      ],
      "name": "isBeforeWithdrawalLock",
      "outputs": [
        {
          "name": "",
          "type": "bool"
        }
      ],
      "payable": false,
      "stateMutability": "view",
      "type": "function"
    },
    {
      "constant": true,
      "inputs": [
        {
          "name": "self",
          "type": "InteractiveCrowdsaleLib.InteractiveCrowdsaleStorage storage"
        }
      ],
      "name": "isAfterWithdrawalLock",
      "outputs": [
        {
          "name": "",
          "type": "bool"
        }
      ],
      "payable": false,
      "stateMutability": "view",
      "type": "function"
    },
    {
      "constant": true,
      "inputs": [
        {
          "name": "self",
          "type": "InteractiveCrowdsaleLib.InteractiveCrowdsaleStorage storage"
        },
        {
          "name": "_bidder",
          "type": "address"
        }
      ],
      "name": "getPersonalCap",
      "outputs": [
        {
          "name": "",
          "type": "uint256"
        }
      ],
      "payable": false,
      "stateMutability": "view",
      "type": "function"
    }
  ],
  "bytecode": "0x614c9f610030600b82828239805160001a6073146000811461002057610022565bfe5b5030600052607381538281f3007300000000000000000000000000000000000000003014606060405260043610620000d2576000357c0100000000000000000000000000000000000000000000000000000000900463ffffffff1680630671860414620000d75780631fc4db9814620001155780632190127c146200016257806345ea578014620001bb57806352bfb6e014620001f95780635385fbcf14620002375780635e0cc55814620002695780637cef2cd9146200029b578063af7d127114620002d9578063baa253001462000317578063c123c9261462000355575b600080fd5b8115620000e357600080fd5b620000fb600480803590602001909190505062000387565b604051808215151515815260200191505060405180910390f35b6200014c600480803590602001909190803573ffffffffffffffffffffffffffffffffffffffff1690602001909190505062000dc3565b6040518082815260200191505060405180910390f35b81156200016e57600080fd5b620001a1600480803590602001909190803590602001909190803590602001909190803590602001909190505062000e0f565b604051808215151515815260200191505060405180910390f35b8115620001c757600080fd5b620001df600480803590602001909190505062001667565b604051808215151515815260200191505060405180910390f35b81156200020557600080fd5b6200021d600480803590602001909190505062001835565b604051808215151515815260200191505060405180910390f35b6200024f6004808035906020019091905050620023d2565b604051808215151515815260200191505060405180910390f35b620002816004808035906020019091905050620023f4565b604051808215151515815260200191505060405180910390f35b8115620002a757600080fd5b620002bf600480803590602001909190505062002404565b604051808215151515815260200191505060405180910390f35b8115620002e557600080fd5b620002fd6004808035906020019091905050620027db565b604051808215151515815260200191505060405180910390f35b81156200032357600080fd5b6200033b6004808035906020019091905050620029ef565b604051808215151515815260200191505060405180910390f35b6200036d600480803590602001909190505062002bb0565b604051808215151515815260200191505060405180910390f35b60008060008060008060008060008060008b601f0160003373ffffffffffffffffffffffffffffffffffffffff1673ffffffffffffffffffffffffffffffffffffffff16815260200190815260200160002054111515620003e757600080fd5b620003f28b620023d2565b1515620003fe57600080fd5b620004098b62002bb0565b15620004ad578a601401548b601f0160003373ffffffffffffffffffffffffffffffffffffffff1673ffffffffffffffffffffffffffffffffffffffff168152602001908152602001600020541015156200046357600080fd5b8a60060160003373ffffffffffffffffffffffffffffffffffffffff1673ffffffffffffffffffffffffffffffffffffffff168152602001908152602001600020549850620008b3565b8a60200160003373ffffffffffffffffffffffffffffffffffffffff1673ffffffffffffffffffffffffffffffffffffffff16815260200190815260200160002060009054906101000a900460ff161515156200050957600080fd5b62000522428c6013015462002bc190919063ffffffff16565b9750620005418b600201548c6013015462002bc190919063ffffffff16565b6200055760648a62002bdb90919063ffffffff16565b8115156200056157fe5b0496506064620005bc8c60060160003373ffffffffffffffffffffffffffffffffffffffff1673ffffffffffffffffffffffffffffffffffffffff168152602001908152602001600020548962002bdb90919063ffffffff16565b811515620005c657fe5b04985062000634898c601d0160008e601f0160003373ffffffffffffffffffffffffffffffffffffffff1673ffffffffffffffffffffffffffffffffffffffff1681526020019081526020016000205481526020019081526020016000205462002bc190919063ffffffff16565b8b601d0160008d601f0160003373ffffffffffffffffffffffffffffffffffffffff1673ffffffffffffffffffffffffffffffffffffffff16815260200190815260200160002054815260200190815260200160002081905550620006fa60018c601e0160008e601f0160003373ffffffffffffffffffffffffffffffffffffffff1673ffffffffffffffffffffffffffffffffffffffff1681526020019081526020016000205481526020019081526020016000205462002bc190919063ffffffff16565b8b601e0160008d601f0160003373ffffffffffffffffffffffffffffffffffffffff1673ffffffffffffffffffffffffffffffffffffffff16815260200190815260200160002054815260200190815260200160002081905550620007ae8b600101548c601c0160003373ffffffffffffffffffffffffffffffffffffffff1673ffffffffffffffffffffffffffffffffffffffff1681526020019081526020016000205462002bc190919063ffffffff16565b955062000813600387811515620007c157fe5b048c601c0160003373ffffffffffffffffffffffffffffffffffffffff1673ffffffffffffffffffffffffffffffffffffffff1681526020019081526020016000205462002bc190919063ffffffff16565b8b601c0160003373ffffffffffffffffffffffffffffffffffffffff1673ffffffffffffffffffffffffffffffffffffffff1681526020019081526020016000208190555060018b60200160003373ffffffffffffffffffffffffffffffffffffffff1673ffffffffffffffffffffffffffffffffffffffff16815260200190815260200160002060006101000a81548160ff0219169083151502179055505b62000909898c60080160003373ffffffffffffffffffffffffffffffffffffffff1673ffffffffffffffffffffffffffffffffffffffff1681526020019081526020016000205462002c1790919063ffffffff16565b8b60080160003373ffffffffffffffffffffffffffffffffffffffff1673ffffffffffffffffffffffffffffffffffffffff16815260200190815260200160002081905550620009a4898c60060160003373ffffffffffffffffffffffffffffffffffffffff1673ffffffffffffffffffffffffffffffffffffffff1681526020019081526020016000205462002bc190919063ffffffff16565b8b60060160003373ffffffffffffffffffffffffffffffffffffffff1673ffffffffffffffffffffffffffffffffffffffff168152602001908152602001600020819055508a601401548b601f0160003373ffffffffffffffffffffffffffffffffffffffff1673ffffffffffffffffffffffffffffffffffffffff1681526020019081526020016000205410151562000cc75762000a51898c6015015462002bc190919063ffffffff16565b94508a601601548511151562000ac9578a601601548b60140154111562000aa35762000aa0858c601d0160008e6016015481526020019081526020016000205462002c1790919063ffffffff16565b94505b8a601601548510151562000abe578a60160154935062000ac3565b600191505b62000aec565b8a601601548b60140154141562000ae7578a60140154935062000aeb565b8493505b5b811562000cb4578a600a0173__LinkedListLib_________________________63574047ac90918d6016015460006040518463ffffffff167c010000000000000000000000000000000000000000000000000000000002815260040180848152602001838152602001821515151581526020019350505050604080518083038186803b151562000b7b57600080fd5b5af4151562000b8957600080fd5b5050506040518051906020018051905080945081925050505b828511151562000c9c5762000bd6858c601d0160008681526020019081526020016000205462002c1790919063ffffffff16565b9450828510151562000beb5782935062000c96565b8a600a0173__LinkedListLib_________________________63574047ac90918560006040518463ffffffff167c010000000000000000000000000000000000000000000000000000000002815260040180848152602001838152602001821515151581526020019350505050604080518083038186803b151562000c6f57600080fd5b5af4151562000c7d57600080fd5b5050506040518051906020018051905080945081925050505b62000ba2565b600084141562000caa578493505b828b601601819055505b838b60140181905550848b601501819055505b3373ffffffffffffffffffffffffffffffffffffffff167ffe8cbe18e126aa8a5f3f6cf988c76fe9625cdbef938d1e0a73641f65a1094a538a8d601f0160003373ffffffffffffffffffffffffffffffffffffffff1673ffffffffffffffffffffffffffffffffffffffff16815260200190815260200160002054604051808381526020018281526020019250505060405180910390a27f96026d61d69319c9c4a088724675179c1972be0648386dde0f588adff2733f778b601601548c601401548d6015015460405180848152602001838152602001828152602001935050505060405180910390a160019950505050505050505050919050565b600082601f0160008373ffffffffffffffffffffffffffffffffffffffff1673ffffffffffffffffffffffffffffffffffffffff16815260200190815260200160002054905092915050565b600080600080600080600062000e258b620023d2565b151562000e3157600080fd5b62000e3c8b62002c34565b151562000e4857600080fd5b62000e538b620023f4565b1562000e7b57898911151562000e6857600080fd5b62000e738b62002d54565b955062000ea4565b62000e948a8c6014015462002c1790919063ffffffff16565b891015151562000ea357600080fd5b5b62000eaf8962002e06565b9450600385111562000ede57600060038603600a0a8a81151562000ecf57fe5b0614151562000edd57600080fd5b5b8a600a0173__LinkedListLib_________________________63f593633c90918b6040518363ffffffff167c0100000000000000000000000000000000000000000000000000000000028152600401808381526020018281526020019250505060206040518083038186803b151562000f5657600080fd5b5af4151562000f6457600080fd5b5050506040518051905015156200103b578a600a0173__LinkedListLib_________________________63352a714b90918a8c60016040518563ffffffff167c0100000000000000000000000000000000000000000000000000000000028152600401808581526020018481526020018381526020018215151515815260200194505050505060206040518083038186803b15156200100257600080fd5b5af415156200101057600080fd5b50505060405180519050945062001039858a60008e600a0162002e40909392919063ffffffff16565b505b888b601f0160003373ffffffffffffffffffffffffffffffffffffffff1673ffffffffffffffffffffffffffffffffffffffff16815260200190815260200160002081905550620010ab8a8c601d0160008c81526020019081526020016000205462002c1790919063ffffffff16565b8b601d0160008b815260200190815260200160002081905550620010ef60018c601e0160008c81526020019081526020016000205462002c1790919063ffffffff16565b8b601e0160008b8152602001908152602001600020819055506200115e8a8c60060160003373ffffffffffffffffffffffffffffffffffffffff1673ffffffffffffffffffffffffffffffffffffffff1681526020019081526020016000205462002c1790919063ffffffff16565b8b60060160003373ffffffffffffffffffffffffffffffffffffffff1673ffffffffffffffffffffffffffffffffffffffff168152602001908152602001600020819055508a60160154891115620014fc578a601601548b6014015414156200122157620012078a620011f88d601d0160008f601601548152602001908152602001600020548e6015015462002bc190919063ffffffff16565b62002c1790919063ffffffff16565b93508a601601548411156200121b57600191505b62001241565b6200123a8a8c6014015462002c1790919063ffffffff16565b9350600191505b811562001496578a600a0173__LinkedListLib_________________________63574047ac90918d6016015460016040518463ffffffff167c010000000000000000000000000000000000000000000000000000000002815260040180848152602001838152602001821515151581526020019350505050604080518083038186803b1515620012d057600080fd5b5af41515620012de57600080fd5b5050506040518051906020018051905080945081925050505b8284101515620013dd576200132b8b601d016000858152602001908152602001600020548562002bc190919063ffffffff16565b93508a600a0173__LinkedListLib_________________________63574047ac90918560016040518463ffffffff167c010000000000000000000000000000000000000000000000000000000002815260040180848152602001838152602001821515151581526020019350505050604080518083038186803b1515620013b157600080fd5b5af41515620013bf57600080fd5b505050604051805190602001805190508094508192505050620012f7565b8a600a0173__LinkedListLib_________________________63574047ac90918560006040518463ffffffff167c010000000000000000000000000000000000000000000000000000000002815260040180848152602001838152602001821515151581526020019350505050604080518083038186803b15156200146157600080fd5b5af415156200146f57600080fd5b505050604051805190602001805190508094508192505050828b601601819055506200149e565b8a6016015492505b8284111515620014e357620014d2848c601d0160008681526020019081526020016000205462002c1790919063ffffffff16565b9350828b60140181905550620014ed565b838b601401819055505b838b601501819055506200152c565b8a601401548914156200152b57620015228a8c6015015462002c1790919063ffffffff16565b8b601501819055505b5b60646200155c6200154860648962002c1790919063ffffffff16565b8d6001015462002bdb90919063ffffffff16565b8115156200156657fe5b048b601c0160003373ffffffffffffffffffffffffffffffffffffffff1673ffffffffffffffffffffffffffffffffffffffff168152602001908152602001600020819055503373ffffffffffffffffffffffffffffffffffffffff167f9dc6f173a1165d03443e68c408ed97eb54b10acbb4dad62bcd70e2e10a14181f8b8b604051808381526020018281526020019250505060405180910390a27f96026d61d69319c9c4a088724675179c1972be0648386dde0f588adff2733f778b601601548c601401548d6015015460405180848152602001838152602001828152602001935050505060405180910390a160019650505050505050949350505050565b600080828060030154421180156200168e575080601b0160009054906101000a900460ff16155b15156200169a57600080fd5b620016a58462002ecc565b50600184601b0160006101000a81548160ff021916908315150217905550620016ce8462002f4b565b1515620016da57600080fd5b83601b0160019054906101000a900460ff1615156200182e578360160154846014015414156200181c5762001770600185601d01600087601401548152602001908152602001600020546200175660646200174789601401548a6015015462002bc190919063ffffffff16565b62002bdb90919063ffffffff16565b8115156200176057fe5b0462002c1790919063ffffffff16565b8460170181905550620017aa84601d0160008660140154815260200190815260200160002054856015015462002bc190919063ffffffff16565b9150620018146064620017f986601d0160008860140154815260200190815260200160002054620017ea8860170154606462002bc190919063ffffffff16565b62002bdb90919063ffffffff16565b8115156200180357fe5b048362002c1790919063ffffffff16565b915062001824565b836014015491505b8184600401819055505b5050919050565b6000806000806000806000808860030154421115156200185457600080fd5b600089601f0160003373ffffffffffffffffffffffffffffffffffffffff1673ffffffffffffffffffffffffffffffffffffffff16815260200190815260200160002054111515620018a557600080fd5b88601b0160009054906101000a900460ff161515620018d657620018c98962002ecc565b1515620018d557600080fd5b5b88601b0160019054906101000a900460ff161562001ab557620019858960060160003373ffffffffffffffffffffffffffffffffffffffff1673ffffffffffffffffffffffffffffffffffffffff168152602001908152602001600020548a60080160003373ffffffffffffffffffffffffffffffffffffffff1673ffffffffffffffffffffffffffffffffffffffff1681526020019081526020016000205462002c1790919063ffffffff16565b8960080160003373ffffffffffffffffffffffffffffffffffffffff1673ffffffffffffffffffffffffffffffffffffffff1681526020019081526020016000208190555060008960060160003373ffffffffffffffffffffffffffffffffffffffff1673ffffffffffffffffffffffffffffffffffffffff168152602001908152602001600020819055507f8756f3e78da606244d7d8c9563ce2678f294db7c57afce515849e03d5eec6c3a896014015460405180828152602001806020018281038252602e8152602001807f53616c652069732063616e63656c65642c20616c6c206269647320686176652081526020017f6265656e20726566756e646564210000000000000000000000000000000000008152506040019250505060405180910390a160019750620023c6565b886014015489601f0160003373ffffffffffffffffffffffffffffffffffffffff1673ffffffffffffffffffffffffffffffffffffffff16815260200190815260200160002054101562001bed578860060160003373ffffffffffffffffffffffffffffffffffffffff1673ffffffffffffffffffffffffffffffffffffffff168152602001908152602001600020548960080160003373ffffffffffffffffffffffffffffffffffffffff1673ffffffffffffffffffffffffffffffffffffffff1681526020019081526020016000206000828254019250508190555060008960060160003373ffffffffffffffffffffffffffffffffffffffff1673ffffffffffffffffffffffffffffffffffffffff1681526020019081526020016000208190555062001be589620027db565b9750620023c6565b886014015489601f0160003373ffffffffffffffffffffffffffffffffffffffff1673ffffffffffffffffffffffffffffffffffffffff16815260200190815260200160002054141562001f8557606462001c978a60060160003373ffffffffffffffffffffffffffffffffffffffff1673ffffffffffffffffffffffffffffffffffffffff168152602001908152602001600020548b6017015462002bdb90919063ffffffff16565b81151562001ca157fe5b049450606462001d008a60060160003373ffffffffffffffffffffffffffffffffffffffff1673ffffffffffffffffffffffffffffffffffffffff168152602001908152602001600020548b6017015462002bdb90919063ffffffff16565b81151562001d0a57fe5b06935062001d63858a60080160003373ffffffffffffffffffffffffffffffffffffffff1673ffffffffffffffffffffffffffffffffffffffff1681526020019081526020016000205462002c1790919063ffffffff16565b8960080160003373ffffffffffffffffffffffffffffffffffffffff1673ffffffffffffffffffffffffffffffffffffffff1681526020019081526020016000208190555062001dfe858a60060160003373ffffffffffffffffffffffffffffffffffffffff1673ffffffffffffffffffffffffffffffffffffffff1681526020019081526020016000205462002bc190919063ffffffff16565b8960060160003373ffffffffffffffffffffffffffffffffffffffff1673ffffffffffffffffffffffffffffffffffffffff16815260200190815260200160002081905550600084111562001f845762001ea3848a60080160003373ffffffffffffffffffffffffffffffffffffffff1673ffffffffffffffffffffffffffffffffffffffff1681526020019081526020016000205462002c1790919063ffffffff16565b8960080160003373ffffffffffffffffffffffffffffffffffffffff1673ffffffffffffffffffffffffffffffffffffffff1681526020019081526020016000208190555062001f3e848a60060160003373ffffffffffffffffffffffffffffffffffffffff1673ffffffffffffffffffffffffffffffffffffffff1681526020019081526020016000205462002bc190919063ffffffff16565b8960060160003373ffffffffffffffffffffffffffffffffffffffff1673ffffffffffffffffffffffffffffffffffffffff168152602001908152602001600020819055505b5b620020138960060160003373ffffffffffffffffffffffffffffffffffffffff1673ffffffffffffffffffffffffffffffffffffffff168152602001908152602001600020548a601c0160003373ffffffffffffffffffffffffffffffffffffffff1673ffffffffffffffffffffffffffffffffffffffff1681526020019081526020016000205462003694565b809750819850505062002071878a60070160003373ffffffffffffffffffffffffffffffffffffffff1673ffffffffffffffffffffffffffffffffffffffff1681526020019081526020016000205462002c1790919063ffffffff16565b8960070160003373ffffffffffffffffffffffffffffffffffffffff1673ffffffffffffffffffffffffffffffffffffffff16815260200190815260200160002081905550620020cf868a6015015462002bc190919063ffffffff16565b89601501819055506200212d868a60060160003373ffffffffffffffffffffffffffffffffffffffff1673ffffffffffffffffffffffffffffffffffffffff1681526020019081526020016000205462002bc190919063ffffffff16565b8960060160003373ffffffffffffffffffffffffffffffffffffffff1673ffffffffffffffffffffffffffffffffffffffff16815260200190815260200160002081905550620021c8868a60080160003373ffffffffffffffffffffffffffffffffffffffff1673ffffffffffffffffffffffffffffffffffffffff1681526020019081526020016000205462002c1790919063ffffffff16565b8960080160003373ffffffffffffffffffffffffffffffffffffffff1673ffffffffffffffffffffffffffffffffffffffff168152602001908152602001600020819055506064620022416200222d60648c601a015462002c1790919063ffffffff16565b8b6001015462002bdb90919063ffffffff16565b8115156200224b57fe5b0491506200229b8960060160003373ffffffffffffffffffffffffffffffffffffffff1673ffffffffffffffffffffffffffffffffffffffff168152602001908152602001600020548362003694565b8097508194505050620022b8878462002bc190919063ffffffff16565b90508860090160009054906101000a900473ffffffffffffffffffffffffffffffffffffffff1673ffffffffffffffffffffffffffffffffffffffff16637b47ec1a826040518263ffffffff167c010000000000000000000000000000000000000000000000000000000002815260040180828152602001915050602060405180830381600087803b15156200234d57600080fd5b5af115156200235b57600080fd5b505050604051805190505060008960060160003373ffffffffffffffffffffffffffffffffffffffff1673ffffffffffffffffffffffffffffffffffffffff16815260200190815260200160002081905550620023b88962002404565b50620023c489620027db565b505b50505050505050919050565b600081600201544210158015620023ed575081600301544211155b9050919050565b6000816013015442109050919050565b6000806000808460070160003373ffffffffffffffffffffffffffffffffffffffff1673ffffffffffffffffffffffffffffffffffffffff168152602001908152602001600020541415620024f4577f8756f3e78da606244d7d8c9563ce2678f294db7c57afce515849e03d5eec6c3a60006040518082815260200180602001828103825260218152602001807f53656e64657220686173206e6f20746f6b656e7320746f20776974686472617781526020017f21000000000000000000000000000000000000000000000000000000000000008152506040019250505060405180910390a160009250620027d4565b8360000160009054906101000a900473ffffffffffffffffffffffffffffffffffffffff1673ffffffffffffffffffffffffffffffffffffffff163373ffffffffffffffffffffffffffffffffffffffff161415620026085783601b0160009054906101000a900460ff16151562002607577f8756f3e78da606244d7d8c9563ce2678f294db7c57afce515849e03d5eec6c3a60006040518082815260200180602001828103825260388152602001807f4f776e65722063616e6e6f7420776974686472617720657874726120746f6b6581526020017f6e7320756e74696c206166746572207468652073616c652100000000000000008152506040019250505060405180910390a160009250620027d4565b5b8360070160003373ffffffffffffffffffffffffffffffffffffffff1673ffffffffffffffffffffffffffffffffffffffff16815260200190815260200160002054905060008460070160003373ffffffffffffffffffffffffffffffffffffffff1673ffffffffffffffffffffffffffffffffffffffff168152602001908152602001600020819055508360090160009054906101000a900473ffffffffffffffffffffffffffffffffffffffff1673ffffffffffffffffffffffffffffffffffffffff1663a9059cbb33836040518363ffffffff167c0100000000000000000000000000000000000000000000000000000000028152600401808373ffffffffffffffffffffffffffffffffffffffff1673ffffffffffffffffffffffffffffffffffffffff16815260200182815260200192505050602060405180830381600087803b15156200275a57600080fd5b5af115156200276857600080fd5b5050506040518051905091508115156200278157600080fd5b3373ffffffffffffffffffffffffffffffffffffffff167fac0f38657cc8741669b8ba861fe5e6e18a4256a26ce4963b7b74a0f8739fdc6f826040518082815260200191505060405180910390a2600192505b5050919050565b60008060008360080160003373ffffffffffffffffffffffffffffffffffffffff1673ffffffffffffffffffffffffffffffffffffffff168152602001908152602001600020541415620028ca577f8756f3e78da606244d7d8c9563ce2678f294db7c57afce515849e03d5eec6c3a60006040518082815260200180602001828103825260248152602001807f53656e64657220686173206e6f2065787472612077656920746f20776974686481526020017f72617721000000000000000000000000000000000000000000000000000000008152506040019250505060405180910390a160009150620029e9565b8260080160003373ffffffffffffffffffffffffffffffffffffffff1673ffffffffffffffffffffffffffffffffffffffff16815260200190815260200160002054905060008360080160003373ffffffffffffffffffffffffffffffffffffffff1673ffffffffffffffffffffffffffffffffffffffff168152602001908152602001600020819055503373ffffffffffffffffffffffffffffffffffffffff166108fc829081150290604051600060405180830381858888f1935050505015156200299657600080fd5b3373ffffffffffffffffffffffffffffffffffffffff167f3531f0ded8ff844beb165a1eeff617d161ea9381dee34a2695d33ea8412d66cd826040518082815260200191505060405180910390a2600191505b50919050565b6000808260000160009054906101000a900473ffffffffffffffffffffffffffffffffffffffff1673ffffffffffffffffffffffffffffffffffffffff163373ffffffffffffffffffffffffffffffffffffffff1614151562002a5157600080fd5b6000836004015411151562002a6557600080fd5b82601b0160009054906101000a900460ff16151562002a8357600080fd5b82600401549050600083600401819055508260000160009054906101000a900473ffffffffffffffffffffffffffffffffffffffff1673ffffffffffffffffffffffffffffffffffffffff166108fc829081150290604051600060405180830381858888f19350505050151562002af957600080fd5b3373ffffffffffffffffffffffffffffffffffffffff167f4159712a53cf7d5c014b7f7bccd52ce07122696797310c76d6d4273f0bda9e99826040518082815260200180602001828103825260288152602001807f43726f776473616c65206f776e6572206861732077697468647261776e20616c81526020017f6c2066756e6473210000000000000000000000000000000000000000000000008152506040019250505060405180910390a26001915050919050565b600081601301544210159050919050565b600082821115151562002bd057fe5b818303905092915050565b60008083141562002bf0576000905062002c11565b818302905081838281151562002c0257fe5b0414151562002c0d57fe5b8090505b92915050565b6000818301905082811015151562002c2b57fe5b80905092915050565b6000808260000160009054906101000a900473ffffffffffffffffffffffffffffffffffffffff1673ffffffffffffffffffffffffffffffffffffffff163373ffffffffffffffffffffffffffffffffffffffff161415151562002c9757600080fd5b6000341415905080151562002cab57600080fd5b600083601f0160003373ffffffffffffffffffffffffffffffffffffffff1673ffffffffffffffffffffffffffffffffffffffff1681526020019081526020016000205414801562002d3e575060008360060160003373ffffffffffffffffffffffffffffffffffffffff1673ffffffffffffffffffffffffffffffffffffffff16815260200190815260200160002054145b151562002d4a57600080fd5b6001915050919050565b600080600080600062002d798660020154876013015462002bc190919063ffffffff16565b935062002d9486600201544262002bc190919063ffffffff16565b92508362002dad60648562002bdb90919063ffffffff16565b81151562002db757fe5b04905062002df8606462002dd988601a01548462002bdb90919063ffffffff16565b81151562002de357fe5b0487601a015462002bc190919063ffffffff16565b915081945050505050919050565b600080600090505b60008314151562002e3757600a8381151562002e2657fe5b049250808060010191505062002e0e565b80915050919050565b60008062002e4f868562003703565b15801562002e65575062002e64868662003703565b5b1562002ebe5785600001600086815260200190815260200160002060008415151515815260200190815260200160002054905062002ea686868686620037c3565b62002eb486858386620037c3565b6001915062002ec3565b600091505b50949350505050565b60008082601801548360140154108062002f0a575062278d008360030154014211801562002f09575082601b0160009054906101000a900460ff16155b5b9050801562002f3157600183601b0160016101000a81548160ff0219169083151502179055505b82601b0160019054906101000a900460ff16915050919050565b60008060008060008060008760190160009054906101000a900460ff1660ff1662002f8560648a6014015462002bdb90919063ffffffff16565b81151562002f8f57fe5b04955062002fe98860140154606462002fcf62002fbb60648d601a015462002c1790919063ffffffff16565b8c6014015462002bdb90919063ffffffff16565b81151562002fd957fe5b0462002bc190919063ffffffff16565b9450670de0b6b3a76400006200300d89600101548862002bdb90919063ffffffff16565b8115156200301757fe5b049350670de0b6b3a76400006200303c89600101548762002bdb90919063ffffffff16565b8115156200304657fe5b049250620030936064620030788a60190160009054906101000a900460ff1660ff168762002bdb90919063ffffffff16565b8115156200308257fe5b048562002bc190919063ffffffff16565b9150620030aa838562002c1790919063ffffffff16565b90503088600b0160030189600b016004018a600b0160070160149054906101000a900460ff1684620030db62003828565b808673ffffffffffffffffffffffffffffffffffffffff1673ffffffffffffffffffffffffffffffffffffffff16815260200180602001806020018560ff1660ff168152602001848152602001838103835287818154600181600116156101000203166002900481526020019150805460018160011615610100020316600290048015620031ad5780601f106200318157610100808354040283529160200191620031ad565b820191906000526020600020905b8154815290600101906020018083116200318f57829003601f168201915b5050838103825286818154600181600116156101000203166002900481526020019150805460018160011615610100020316600290048015620032345780601f10620032085761010080835404028352916020019162003234565b820191906000526020600020905b8154815290600101906020018083116200321657829003601f168201915b5050975050505050505050604051809103906000f08015156200325657600080fd5b8860090160006101000a81548173ffffffffffffffffffffffffffffffffffffffff021916908373ffffffffffffffffffffffffffffffffffffffff16021790555087601b0160019054906101000a900460ff161515620033bb578760090160009054906101000a900473ffffffffffffffffffffffffffffffffffffffff1673ffffffffffffffffffffffffffffffffffffffff1663a9059cbb8960000160009054906101000a900473ffffffffffffffffffffffffffffffffffffffff16846040518363ffffffff167c0100000000000000000000000000000000000000000000000000000000028152600401808373ffffffffffffffffffffffffffffffffffffffff1673ffffffffffffffffffffffffffffffffffffffff16815260200182815260200192505050602060405180830381600087803b15156200339c57600080fd5b5af11515620033aa57600080fd5b50505060405180519050506200356c565b8760090160009054906101000a900473ffffffffffffffffffffffffffffffffffffffff1673ffffffffffffffffffffffffffffffffffffffff1663a9059cbb8960000160009054906101000a900473ffffffffffffffffffffffffffffffffffffffff16866040518363ffffffff167c0100000000000000000000000000000000000000000000000000000000028152600401808373ffffffffffffffffffffffffffffffffffffffff1673ffffffffffffffffffffffffffffffffffffffff16815260200182815260200192505050602060405180830381600087803b1515620034a657600080fd5b5af11515620034b457600080fd5b50505060405180519050508760090160009054906101000a900473ffffffffffffffffffffffffffffffffffffffff1673ffffffffffffffffffffffffffffffffffffffff16637b47ec1a846040518263ffffffff167c010000000000000000000000000000000000000000000000000000000002815260040180828152602001915050602060405180830381600087803b15156200355257600080fd5b5af115156200356057600080fd5b50505060405180519050505b8760090160009054906101000a900473ffffffffffffffffffffffffffffffffffffffff1673ffffffffffffffffffffffffffffffffffffffff1663a6f9dae18960000160009054906101000a900473ffffffffffffffffffffffffffffffffffffffff166040518263ffffffff167c0100000000000000000000000000000000000000000000000000000000028152600401808273ffffffffffffffffffffffffffffffffffffffff1673ffffffffffffffffffffffffffffffffffffffff168152602001915050602060405180830381600087803b15156200364f57600080fd5b5af115156200365d57600080fd5b50505060405180519050506200367d828562002bc190919063ffffffff16565b886005018190555060019650505050505050919050565b6000806000806000809250620036b4868862002bdb90919063ffffffff16565b9050670de0b6b3a764000081811515620036ca57fe5b049150670de0b6b3a764000081811515620036e157fe5b0692508583811515620036f057fe5b0492508183945094505050509250929050565b600080836000016000848152602001908152602001600020600080151515158152602001908152602001600020541480156200376a575060008360000160008481526020019081526020016000206000600115151515815260200190815260200160002054145b15620037b8578183600001600080815260200190815260200160002060006001151515158152602001908152602001600020541415620037ae5760019050620037bd565b60009050620037bd565b600190505b92915050565b828460000160008481526020019081526020016000206000831515151515815260200190815260200160002081905550818460000160008581526020019081526020016000206000831515151581526020019081526020016000208190555050505050565b60405161143a806200383a8339019056006060604052341561000f57600080fd5b60405161143a38038061143a83398101604052808051906020019091908051820191906020018051820191906020018051906020019091908051906020019091905050600073__TokenLib______________________________63932929729091878787878760006040518863ffffffff167c0100000000000000000000000000000000000000000000000000000000028152600401808881526020018773ffffffffffffffffffffffffffffffffffffffff1673ffffffffffffffffffffffffffffffffffffffff16815260200180602001806020018660ff1660ff16815260200185815260200184151515158152602001838103835288818151815260200191508051906020019080838360005b8381101561013a57808201518184015260208101905061011f565b50505050905090810190601f1680156101675780820380516001836020036101000a031916815260200191505b50838103825287818151815260200191508051906020019080838360005b838110156101a0578082015181840152602081019050610185565b50505050905090810190601f1680156101cd5780820380516001836020036101000a031916815260200191505b50995050505050505050505060006040518083038186803b15156101f057600080fd5b5af415156101fd57600080fd5b5050505050505050611226806102146000396000f3006060604052600436106100e6576000357c0100000000000000000000000000000000000000000000000000000000900463ffffffff16806306fdde03146100eb578063095ea7b31461017957806318160ddd146101d357806323b872dd146101fc578063313ce56714610275578063378dc3dc146102a457806364f101f0146102cd57806370a08231146102fa5780637b47ec1a146103475780638bbdfaa61461038257806395d89b41146103e7578063a6f9dae114610475578063a9059cbb146104c6578063c634d03214610520578063dd62ed3e1461055b578063fc0c546a146105c7575b600080fd5b34156100f657600080fd5b6100fe610725565b6040518080602001828103825283818151815260200191508051906020019080838360005b8381101561013e578082015181840152602081019050610123565b50505050905090810190601f16801561016b5780820380516001836020036101000a031916815260200191505b509250505060405180910390f35b341561018457600080fd5b6101b9600480803573ffffffffffffffffffffffffffffffffffffffff169060200190919080359060200190919050506107d0565b604051808215151515815260200191505060405180910390f35b34156101de57600080fd5b6101e6610899565b6040518082815260200191505060405180910390f35b341561020757600080fd5b61025b600480803573ffffffffffffffffffffffffffffffffffffffff1690602001909190803573ffffffffffffffffffffffffffffffffffffffff169060200190919080359060200190919050506108a5565b604051808215151515815260200191505060405180910390f35b341561028057600080fd5b6102886109a3565b604051808260ff1660ff16815260200191505060405180910390f35b34156102af57600080fd5b6102b76109bc565b6040518082815260200191505060405180910390f35b34156102d857600080fd5b6102e06109c8565b604051808215151515815260200191505060405180910390f35b341561030557600080fd5b610331600480803573ffffffffffffffffffffffffffffffffffffffff16906020019091905050610a52565b6040518082815260200191505060405180910390f35b341561035257600080fd5b6103686004808035906020019091905050610b12565b604051808215151515815260200191505060405180910390f35b341561038d57600080fd5b6103cd600480803573ffffffffffffffffffffffffffffffffffffffff169060200190919080359060200190919080351515906020019091905050610ba6565b604051808215151515815260200191505060405180910390f35b34156103f257600080fd5b6103fa610c7c565b6040518080602001828103825283818151815260200191508051906020019080838360005b8381101561043a57808201518184015260208101905061041f565b50505050905090810190601f1680156104675780820380516001836020036101000a031916815260200191505b509250505060405180910390f35b341561048057600080fd5b6104ac600480803573ffffffffffffffffffffffffffffffffffffffff16906020019091905050610d27565b604051808215151515815260200191505060405180910390f35b34156104d157600080fd5b610506600480803573ffffffffffffffffffffffffffffffffffffffff16906020019091908035906020019091905050610de7565b604051808215151515815260200191505060405180910390f35b341561052b57600080fd5b6105416004808035906020019091905050610eb0565b604051808215151515815260200191505060405180910390f35b341561056657600080fd5b6105b1600480803573ffffffffffffffffffffffffffffffffffffffff1690602001909190803573ffffffffffffffffffffffffffffffffffffffff16906020019091905050610f44565b6040518082815260200191505060405180910390f35b34156105d257600080fd5b6105da611039565b604051808915151515815260200180602001806020018881526020018781526020018673ffffffffffffffffffffffffffffffffffffffff1673ffffffffffffffffffffffffffffffffffffffff1681526020018560ff1660ff1681526020018415151515815260200183810383528a818151815260200191508051906020019080838360005b8381101561067c578082015181840152602081019050610661565b50505050905090810190601f1680156106a95780820380516001836020036101000a031916815260200191505b50838103825289818151815260200191508051906020019080838360005b838110156106e25780820151818401526020810190506106c7565b50505050905090810190601f16801561070f5780820380516001836020036101000a031916815260200191505b509a505050505050505050505060405180910390f35b61072d6111e6565b60006003018054600181600116156101000203166002900480601f0160208091040260200160405190810160405280929190818152602001828054600181600116156101000203166002900480156107c65780601f1061079b576101008083540402835291602001916107c6565b820191906000526020600020905b8154815290600101906020018083116107a957829003601f168201915b5050505050905090565b60008073__TokenLib______________________________638ca979ca909185856040518463ffffffff167c0100000000000000000000000000000000000000000000000000000000028152600401808481526020018373ffffffffffffffffffffffffffffffffffffffff1673ffffffffffffffffffffffffffffffffffffffff168152602001828152602001935050505060206040518083038186803b151561087a57600080fd5b5af4151561088757600080fd5b50505060405180519050905092915050565b60008060050154905090565b60008073__TokenLib______________________________6321a6a23d90918686866040518563ffffffff167c0100000000000000000000000000000000000000000000000000000000028152600401808581526020018473ffffffffffffffffffffffffffffffffffffffff1673ffffffffffffffffffffffffffffffffffffffff1681526020018373ffffffffffffffffffffffffffffffffffffffff1673ffffffffffffffffffffffffffffffffffffffff16815260200182815260200194505050505060206040518083038186803b151561098357600080fd5b5af4151561099057600080fd5b5050506040518051905090509392505050565b60008060070160149054906101000a900460ff16905090565b60008060060154905090565b60008073__TokenLib______________________________63a7ccd77690916040518263ffffffff167c01000000000000000000000000000000000000000000000000000000000281526004018082815260200191505060206040518083038186803b1515610a3657600080fd5b5af41515610a4357600080fd5b50505060405180519050905090565b60008073__TokenLib______________________________633af00d0f9091846040518363ffffffff167c0100000000000000000000000000000000000000000000000000000000028152600401808381526020018273ffffffffffffffffffffffffffffffffffffffff1673ffffffffffffffffffffffffffffffffffffffff1681526020019250505060206040518083038186803b1515610af457600080fd5b5af41515610b0157600080fd5b505050604051805190509050919050565b60008073__TokenLib______________________________636269321c9091846040518363ffffffff167c0100000000000000000000000000000000000000000000000000000000028152600401808381526020018281526020019250505060206040518083038186803b1515610b8857600080fd5b5af41515610b9557600080fd5b505050604051805190509050919050565b60008073__TokenLib______________________________63bd03185c90918686866040518563ffffffff167c0100000000000000000000000000000000000000000000000000000000028152600401808581526020018473ffffffffffffffffffffffffffffffffffffffff1673ffffffffffffffffffffffffffffffffffffffff1681526020018381526020018215151515815260200194505050505060206040518083038186803b1515610c5c57600080fd5b5af41515610c6957600080fd5b5050506040518051905090509392505050565b610c846111e6565b60006004018054600181600116156101000203166002900480601f016020809104026020016040519081016040528092919081815260200182805460018160011615610100020316600290048015610d1d5780601f10610cf257610100808354040283529160200191610d1d565b820191906000526020600020905b815481529060010190602001808311610d0057829003601f168201915b5050505050905090565b60008073__TokenLib______________________________636f71ca3c9091846040518363ffffffff167c0100000000000000000000000000000000000000000000000000000000028152600401808381526020018273ffffffffffffffffffffffffffffffffffffffff1673ffffffffffffffffffffffffffffffffffffffff1681526020019250505060206040518083038186803b1515610dc957600080fd5b5af41515610dd657600080fd5b505050604051805190509050919050565b60008073__TokenLib______________________________63d4b1770a909185856040518463ffffffff167c0100000000000000000000000000000000000000000000000000000000028152600401808481526020018373ffffffffffffffffffffffffffffffffffffffff1673ffffffffffffffffffffffffffffffffffffffff168152602001828152602001935050505060206040518083038186803b1515610e9157600080fd5b5af41515610e9e57600080fd5b50505060405180519050905092915050565b60008073__TokenLib______________________________63f8f095f29091846040518363ffffffff167c0100000000000000000000000000000000000000000000000000000000028152600401808381526020018281526020019250505060206040518083038186803b1515610f2657600080fd5b5af41515610f3357600080fd5b505050604051805190509050919050565b60008073__TokenLib______________________________63ac9b44f7909185856040518463ffffffff167c0100000000000000000000000000000000000000000000000000000000028152600401808481526020018373ffffffffffffffffffffffffffffffffffffffff1673ffffffffffffffffffffffffffffffffffffffff1681526020018273ffffffffffffffffffffffffffffffffffffffff1673ffffffffffffffffffffffffffffffffffffffff168152602001935050505060206040518083038186803b151561101a57600080fd5b5af4151561102757600080fd5b50505060405180519050905092915050565b60008060000160009054906101000a900460ff1690806003018054600181600116156101000203166002900480601f0160208091040260200160405190810160405280929190818152602001828054600181600116156101000203166002900480156110e65780601f106110bb576101008083540402835291602001916110e6565b820191906000526020600020905b8154815290600101906020018083116110c957829003601f168201915b505050505090806004018054600181600116156101000203166002900480601f0160208091040260200160405190810160405280929190818152602001828054600181600116156101000203166002900480156111845780601f1061115957610100808354040283529160200191611184565b820191906000526020600020905b81548152906001019060200180831161116757829003601f168201915b5050505050908060050154908060060154908060070160009054906101000a900473ffffffffffffffffffffffffffffffffffffffff16908060070160149054906101000a900460ff16908060070160159054906101000a900460ff16905088565b6020604051908101604052806000815250905600a165627a7a72305820a82665dd96e2baa0d7f0d9ee083d04c7fe5fb1c00772638859c5254bfe89301f0029a165627a7a723058205309c86f1a6bbdca43bf717e8ac71b9f65c63cf47ba6a833456a6a6b19aa57150029",
  "source": "pragma solidity ^0.4.18;\n\n/**\n * @title InteractiveCrowdsaleLib\n * @author Modular, Inc\n *\n * version 2.0.0\n * Copyright (c) 2017 Modular, Inc\n * The MIT License (MIT)\n *\n * The InteractiveCrowdsale Library provides functionality to create a crowdsale\n * based on the white paper initially proposed by Jason Teutsch and Vitalik\n * Buterin. See https://people.cs.uchicago.edu/~teutsch/papers/ico.pdf for\n * further information.\n *\n * This library was developed in a collaborative effort among many organizations\n * including TrueBit, Modular, and Consensys.\n * For further information: truebit.io, modular.network,\n * consensys.net\n *\n * THE SOFTWARE IS PROVIDED \"AS IS\", WITHOUT WARRANTY OF ANY KIND, EXPRESS\n * OR IMPLIED, INCLUDING BUT NOT LIMITED TO THE WARRANTIES OF\n * MERCHANTABILITY, FITNESS FOR A PARTICULAR PURPOSE AND NONINFRINGEMENT.\n * IN NO EVENT SHALL THE AUTHORS OR COPYRIGHT HOLDERS BE LIABLE FOR ANY\n * CLAIM, DAMAGES OR OTHER LIABILITY, WHETHER IN AN ACTION OF CONTRACT,\n * TORT OR OTHERWISE, ARISING FROM, OUT OF OR IN CONNECTION WITH THE\n * SOFTWARE OR THE USE OR OTHER DEALINGS IN THE SOFTWARE.\n */\n\nimport \"zeppelin-solidity/contracts/math/SafeMath.sol\";\nimport \"ethereum-libraries-token/contracts/TokenLib.sol\";\nimport \"ethereum-libraries-linked-list/contracts/LinkedListLib.sol\";\nimport \"./InteractiveCrowdsaleToken.sol\";\n\nlibrary InteractiveCrowdsaleLib {\n  using SafeMath for uint256;\n  using TokenLib for TokenLib.TokenStorage;\n  using LinkedListLib for LinkedListLib.LinkedList;\n\n  // Node constants for use in the linked list\n  uint256 constant NULL = 0;\n  uint256 constant HEAD = 0;\n  bool constant PREV = false;\n  bool constant NEXT = true;\n\n  struct InteractiveCrowdsaleStorage {\n\n    address owner;     //owner of the crowdsale\n\n  \tuint256 tokensPerEth;  //number of tokens received per ether\n  \tuint256 startTime; //ICO start time, timestamp\n  \tuint256 endTime; //ICO end time, timestamp automatically calculated\n    uint256 ownerBalance; //owner wei Balance\n    uint256 startingTokenBalance; //initial amount of tokens for sale\n\n    //shows how much wei an address has contributed\n  \tmapping (address => uint256) hasContributed;\n\n    //For token withdraw function, maps a user address to the amount of tokens they can withdraw\n  \tmapping (address => uint256) withdrawTokensMap;\n\n    // any leftover wei that buyers contributed that didn't add up to a whole token amount\n    mapping (address => uint256) leftoverWei;\n\n  \tInteractiveCrowdsaleToken token; //token being sold\n\n    // List of personal valuations, sorted from smallest to largest (from LinkedListLib)\n    LinkedListLib.LinkedList valuationsList; /* OK, so this is the linkedlist of different peoples valuation caps.. */\n\n    // Info holder for token creation\n    TokenLib.TokenStorage tokenInfo; /* These are the values that will ultimately  */\n\n    uint256 endWithdrawalTime;   // time when manual withdrawals are no longer allowed\n\n    // current total valuation of the sale\n    // actual amount of ETH committed, taking into account partial purchases\n    uint256 totalValuation;\n\n    // amount of value committed at this valuation, cannot rely on owner balance\n    // due to fluctations in commitment calculations needed after owner withdraws\n    // in other words, the total amount of ETH committed, including total bids\n    // that will eventually get partial purchases\n    uint256 valueCommitted;\n\n    // the bucket that sits either at or just below current total valuation.\n    // determines where the cutoff point is for bids in the sale\n    uint256 currentBucket;\n\n    // the fraction of each minimal valuation bidder's ether refund, 'q' is from the paper\n    // and is calculated when finalizing the sale\n    uint256 q;\n\n    // minimim amount that the sale needs to make to be successfull\n    uint256 minimumRaise;\n\n    // percentage of total tokens being sold in this sale\n    uint8 percentBeingSold;\n\n    // the bonus amount for early bidders.  This is a percentage of the base token\n    // price that gets added on the the base token price used in getCurrentBonus()\n    uint256 priceBonusPercent;\n\n    // Indicates that the owner has finalized the sale and withdrawn Ether\n    bool isFinalized;\n\n    // Set to true if the sale is canceled\n    bool isCanceled;\n\n    // shows the price that the address purchased tokens at\n    mapping (address => uint256) pricePurchasedAt;\n\n    // the sums of bids at each valuation.  Used to calculate the current bucket for the valuation pointer\n    mapping (uint256 => uint256) valuationSums;\n\n    // the number of active bids at a certain valuation cap\n    mapping (uint256 => uint256) numBidsAtValuation;\n\n    // the valuation cap that each address has submitted\n    mapping (address => uint256) personalCaps;\n\n    // shows if an address has done a manual withdrawal. manual withdrawals are only allowed once\n    mapping (address => bool) hasManuallyWithdrawn;\n  }\n\n  // Indicates when an address has withdrawn their supply of tokens\n  event LogTokensWithdrawn(address indexed _bidder, uint256 Amount);\n\n  // Indicates when an address has withdrawn their supply of extra wei\n  event LogWeiWithdrawn(address indexed _bidder, uint256 Amount);\n\n  // Logs when owner has pulled eth\n  event LogOwnerEthWithdrawn(address indexed owner, uint256 amount, string Msg);\n\n  // Indicates when a bidder submits a bid to the crowdsale\n  event LogBidAccepted(address indexed bidder, uint256 amount, uint256 personalValuation);\n\n  // Indicates when a bidder manually withdraws their bid from the crowdsale\n  event LogBidWithdrawn(address indexed bidder, uint256 amount, uint256 personalValuation);\n\n  // Indicates when a bid is removed by the automated bid removal process\n  event LogBidRemoved(address indexed bidder, uint256 personalValuation);\n\n  // Generic Error Msg Event\n  event LogErrorMsg(uint256 amount, string Msg);\n\n  // Indicates when the price of the token changes\n  event LogTokenPriceChange(uint256 amount, string Msg);\n\n  // Logs the current bucket that the valuation points to, the total valuation of\n  // the sale, and the amount of ETH committed, including total bids that will eventually get partial purchases\n  event BucketAndValuationAndCommitted(uint256 bucket, uint256 valuation, uint256 committed);\n\n  modifier saleEndedNotFinal(InteractiveCrowdsaleStorage storage self) {\n    require(now > self.endTime && (!self.isFinalized));\n    _;\n  }\n\n  /// @dev Called by a crowdsale contract upon creation.\n  /// @param self Stored crowdsale from crowdsale contract\n  /// @param _owner Address of crowdsale owner\n  /// @param _priceBonusPercent the bonus amount for early bidders\n  /// @param _minimumRaise minimim amount that the sale needs to make to be successfull\n  /// @param _tokensPerEth the number of tokens to be received per ether sent\n  /// @param _startTime timestamp of sale start time\n  /// @param _endWithdrawalTime timestamp that indicates that manual withdrawals are no longer allowed\n  /// @param _endTime Timestamp of sale end time\n  /// @param _percentBeingSold percentage of total tokens being sold in the sale\n  /// @param _tokenName name of the token being sold. ex: \"Jason Network Token\"\n  /// @param _tokenSymbol symbol of the token. ex: \"JNT\"\n  /// @param _tokenDecimals number of decimals in the token\n  /* NOTE: This is basically the code which will be called by the constructor of the calling contract\n      Question: is there anything that can be done here to fuck with the Library contract itself?\n        Does solidity Guarantee that a Library is stateless?\n   */\n  function init(InteractiveCrowdsaleStorage storage self,\n                address _owner,\n                uint256 _priceBonusPercent,\n                uint256 _minimumRaise,\n                uint256 _tokensPerEth,\n                uint256 _startTime,\n                uint256 _endWithdrawalTime,\n                uint256 _endTime,\n                uint8 _percentBeingSold,\n                string _tokenName,\n                string _tokenSymbol,\n                uint8 _tokenDecimals) internal\n  {\n    //g base.startTime is start of ICO\n    //g base.endTime is end of ICO\n    //g times are checked endTime > endWithdrawalTime > startTime\n    require(self.owner == 0);\n    require(_owner > 0);\n    require(_endWithdrawalTime < _endTime);\n    require(_endWithdrawalTime > _startTime);\n    require(_minimumRaise > 0);\n    require(_percentBeingSold > 0);\n    require(_percentBeingSold <= 100);\n    require(_priceBonusPercent > 0);\n\n    /* Just sets a bunch of parameters for the sale in the struct. This must be a massive struct in storage */\n    self.owner = _owner;\n    self.priceBonusPercent = _priceBonusPercent;\n    self.minimumRaise = _minimumRaise;\n    self.tokensPerEth = _tokensPerEth;\n    self.startTime = _startTime;\n    self.endWithdrawalTime = _endWithdrawalTime;\n    self.endTime = _endTime;\n    self.percentBeingSold = _percentBeingSold;\n    self.tokenInfo.name = _tokenName;\n    self.tokenInfo.symbol = _tokenSymbol;\n    self.tokenInfo.decimals = _tokenDecimals;\n  }\n\n  /// @dev calculates the number of digits in a given number\n  /// @param _number the number for which we're caluclating digits\n  /// @return _digits the number of digits in _number\n  /* J: I tested out this and it seemed to work for  */\n  function numDigits(uint256 _number) private pure returns (uint256) {\n    uint256 _digits = 0;\n    while (_number != 0) {\n      _number /= 10;\n      _digits++;\n    }\n    return _digits;\n  }\n\n  /// @dev calculates the number of tokens purchased based on the amount of wei\n  ///      spent and the price of tokens\n  /// @param _amount amound of wei that the buyer sent\n  /// @param _price price of tokens in the sale, in tokens/ETH\n  /// @return uint256 numTokens the number of tokens purchased\n  /// @return remainder  any remaining wei leftover from integer division\n  function calculateTokenPurchase(uint256 _amount,\n                                  uint256 _price)\n                                  private\n                                  pure\n                                  returns (uint256,uint256)\n  {\n    uint256 remainder = 0; //temp calc holder for division remainder for leftover wei\n\n    uint256 numTokens;\n    uint256 weiTokens; //temp calc holder\n\n    // Find the number of tokens as a function in wei\n    weiTokens = _amount.mul(_price);\n\n    numTokens = weiTokens / 1000000000000000000;\n    remainder = weiTokens % 1000000000000000000;\n    remainder = remainder / _price;\n\n    return (numTokens,remainder);\n  }\n\n  /// @dev Called when an address wants to submit a bid to the sale\n  /// @param self Stored crowdsale from crowdsale contract\n  /// @return currentBonus percentage of the bonus that is applied for the purchase\n  function getCurrentBonus(InteractiveCrowdsaleStorage storage self) private view returns (uint256){\n\n    uint256 bonusTime;\n    uint256 elapsed;\n    uint256 currentBonus;\n\n    bonusTime = self.endWithdrawalTime.sub(self.startTime);\n    elapsed = now.sub(self.startTime);\n\n    uint256 percentElapsed = (elapsed.mul(100))/bonusTime;\n\n    currentBonus = self.priceBonusPercent.sub(((percentElapsed.mul(self.priceBonusPercent))/100));\n\n    return currentBonus;\n  }\n\n  function isAValidPurchase(InteractiveCrowdsaleStorage storage self) private view returns (bool){\n    require(msg.sender != self.owner); /* J: Interesting, so owner can't bid? OK. */\n\n    bool nonZeroPurchase = msg.value != 0;\n    require(nonZeroPurchase);\n    // bidder can't have already bid   /* Hmmm... why not? Probably just makes logic easier. */ <--- To prevent false signaling\n    require((self.personalCaps[msg.sender] == 0) && (self.hasContributed[msg.sender] == 0));\n    return true;\n  }\n\n  /// @dev Called when an address wants to submit bid to the sale\n  /// @param self Stored crowdsale from crowdsale contract\n  /// @param _amount amound of wei that the buyer is sending\n  /// @param _personalCap the total crowdsale valuation (wei) that the bidder is comfortable with\n  /// @param _valuePredict prediction of where the valuation will go in the linked list. saves on searching time\n  /// @return true on succesful bid\n  function submitBid(InteractiveCrowdsaleStorage storage self,\n                      uint256 _amount,\n                      uint256 _personalCap,\n                      uint256 _valuePredict)\n                      public\n                      returns (bool)\n  {\n    require(crowdsaleIsActive(self));\n    require(isAValidPurchase(self));\n    uint256 _bonusPercent;\n    uint256 placeholder;\n    // token purchase bonus only applies before the withdrawal lock\n    if (isBeforeWithdrawalLock(self)) { /* first half of the sale */\n      require(_personalCap > _amount); /* Kind of a silly check, but I guess it would be bad if this was false. */\n      _bonusPercent = getCurrentBonus(self);\n    } else { /* Thus we're in the second half of the sale. validPurchase ensures it's not over.*/\n      // The personal valuation submitted must be greater than the current\n      // valuation plus the bid if after the withdrawal lock.\n      require(_personalCap >= self.totalValuation.add(_amount)); /* Your max cap must be at least the current total valuation, plus your contribution. */\n    }\n\n    // personal valuation and minimum should be set to the proper granularity,\n    // only three most significant values can be non-zero. reduces the number of possible\n    // valuation buckets in the linked list\n    placeholder = numDigits(_personalCap);\n    if(placeholder > 3) {\n      /* Must be divisible by 10x the number of digits over 3.\n        ie. 1230 has 4 digits. It's divisible by (4-3)*10 = 10, so it's OK.\n       */\n      require((_personalCap % (10**(placeholder - 3))) == 0); /* J: I checked this math, it's good. */\n    }\n\n    // add the bid to the sorted valuations list\n    // duplicate personal valuation caps share a spot in the linked list\n    /* J: LinkedListLib is going to need careful review */\n    if(!self.valuationsList.nodeExists(_personalCap)){\n        placeholder = self.valuationsList.getSortedSpot(_valuePredict,_personalCap,NEXT);\n        self.valuationsList.insert(placeholder,_personalCap,PREV);\n    }\n\n    // add the bid to the address => cap mapping\n    self.personalCaps[msg.sender] = _personalCap;\n\n    // add the bid to the sum of bids at this valuation. Needed for calculating correct valuation pointer\n    self.valuationSums[_personalCap] = self.valuationSums[_personalCap].add(_amount);\n\n    self.numBidsAtValuation[_personalCap] = self.numBidsAtValuation[_personalCap].add(1);\n\n    // add the bid to bidder's contribution amount\n    /* Note: the above requires (self.hasContributed[msg.sender] == 0)\n      But this comment seems to suggest otherwise.\n    */\n    self.hasContributed[msg.sender] = self.hasContributed[msg.sender].add(_amount);\n\n    // temp variables for calculation\n    uint256 _proposedCommit;\n    uint256 _currentBucket;\n    bool loop;\n    bool exists;\n    /* J: reviewed the function up to this point */\n    // we only affect the pointer if we are coming in above it\n    if(_personalCap > self.currentBucket){\n\n      // if our valuation is sitting at the current bucket then we are using\n      // commitments right at their cap\n      if (self.totalValuation == self.currentBucket) {\n        // we are going to drop those commitments to see if we are going to be\n        // greater than the current bucket without them\n        _proposedCommit = (self.valueCommitted.sub(self.valuationSums[self.currentBucket])).add(_amount);\n\n        if(_proposedCommit > self.currentBucket){ loop = true; }\n      } else {\n        // else we're sitting in between buckets and have already dropped the\n        // previous commitments\n        _proposedCommit = self.totalValuation.add(_amount);\n        loop = true;\n      }\n\n      if(loop){\n        // if we're going to loop we move to the next bucket\n        (exists,_currentBucket) = self.valuationsList.getAdjacent(self.currentBucket, NEXT);\n\n        while(_proposedCommit >= _currentBucket){\n          // while we are proposed higher than the next bucket we drop commitments\n          // and iterate to the next\n          _proposedCommit = _proposedCommit.sub(self.valuationSums[_currentBucket]);\n\n          /**Stop checking err here**/\n          (exists,_currentBucket) = self.valuationsList.getAdjacent(_currentBucket, NEXT);\n        }\n        // once we've reached a bucket too high we move back to the last bucket and set it\n        (exists, _currentBucket) = self.valuationsList.getAdjacent(_currentBucket, PREV);\n        self.currentBucket = _currentBucket;\n      } else {\n        // else we're staying at the current bucket\n        _currentBucket = self.currentBucket;\n      }\n      // if our proposed commitment is less than or equal to the bucket\n      if(_proposedCommit <= _currentBucket){\n        // we add the commitments in that bucket\n        _proposedCommit = self.valuationSums[_currentBucket].add(_proposedCommit);\n        // and our value is capped at that bucket\n        self.totalValuation = _currentBucket;\n      } else {\n        // else our total value is in between buckets and it equals the total commitements\n        self.totalValuation = _proposedCommit;\n      }\n\n      self.valueCommitted = _proposedCommit;\n    } else if(_personalCap == self.totalValuation){\n      self.valueCommitted = self.valueCommitted.add(_amount);\n    }\n\n    self.pricePurchasedAt[msg.sender] = (self.tokensPerEth.mul(_bonusPercent.add(100)))/100;\n    LogBidAccepted(msg.sender, _amount, _personalCap);\n    BucketAndValuationAndCommitted(self.currentBucket, self.totalValuation, self.valueCommitted);\n    return true;\n  }\n\n\n  /// @dev Called when an address wants to manually withdraw their bid from the\n  ///      sale. puts their wei in the LeftoverWei mapping\n  /// @param self Stored crowdsale from crowdsale contract\n  /// @return true on succesful\n  function withdrawBid(InteractiveCrowdsaleStorage storage self) public returns (bool) {\n    // The sender has to have already bid on the sale\n    require(self.personalCaps[msg.sender] > 0);\n    require(crowdsaleIsActive(self));\n    uint256 refundWei;\n    // cannot withdraw after compulsory withdraw period is over unless the bid's\n    // valuation is below the cutoff\n    if (isAfterWithdrawalLock(self)) {\n      require(self.personalCaps[msg.sender] < self.totalValuation);\n\n      // full refund because their bid no longer affects the total sale valuation\n      /* FLAG: queuing up a refund without checking self.hasManuallyWithdrawn? */\n      refundWei = self.hasContributed[msg.sender];\n    } else {\n      require(!self.hasManuallyWithdrawn[msg.sender]);  // manual withdrawals are only allowed once\n      /***********************************************************************\n      The following lines were commented out due to stack depth, but they represent\n      the variables and calculations from the paper. The actual code is the same\n      thing spelled out using current variables.  See section 4 of the white paper for formula used\n      ************************************************************************/\n      //uint256 t = self.endWithdrawalTime - self.startTime;\n      //uint256 s = now - self.startTime;\n      //uint256 pa = self.pricePurchasedAt[msg.sender];\n      //uint256 pu = self.tokensPerEth;\n      //uint256 multiplierPercent =  (100*(t - s))/t;\n      //self.pricePurchasedAt = pa-((pa-pu)/3)\n      uint256 timeLeft;\n\n      timeLeft = self.endWithdrawalTime.sub(now);\n      uint256 multiplierPercent = (timeLeft.mul(100)) / (self.endWithdrawalTime.sub(self.startTime));\n\n      refundWei = (multiplierPercent.mul(self.hasContributed[msg.sender])) / 100;\n      self.valuationSums[self.personalCaps[msg.sender]] = self.valuationSums[self.personalCaps[msg.sender]].sub(refundWei);\n\n      self.numBidsAtValuation[self.personalCaps[msg.sender]] = self.numBidsAtValuation[self.personalCaps[msg.sender]].sub(1);\n\n      uint256 bonusAmount;\n      bonusAmount = self.pricePurchasedAt[msg.sender].sub(self.tokensPerEth);\n      self.pricePurchasedAt[msg.sender] = self.pricePurchasedAt[msg.sender].sub(bonusAmount / 3);\n\n      self.hasManuallyWithdrawn[msg.sender] = true;\n\n    }\n\n    // Put the sender's contributed wei into the leftoverWei mapping for later withdrawal\n    self.leftoverWei[msg.sender] = self.leftoverWei[msg.sender].add(refundWei);\n\n    // subtract the bidder's refund from its total contribution\n    self.hasContributed[msg.sender] = self.hasContributed[msg.sender].sub(refundWei);\n\n    uint256 _proposedCommit;\n    uint256 _proposedValue;\n    uint256 _currentBucket;\n    bool loop;\n    bool exists;\n\n    // bidder's withdrawal only affects the pointer if the personal cap is at or\n    // above the current valuation\n    if(self.personalCaps[msg.sender] >= self.totalValuation){\n\n      // first we remove the refundWei from the committed value\n      _proposedCommit = self.valueCommitted.sub(refundWei);\n\n      // if we've dropped below the current bucket\n      if(_proposedCommit <= self.currentBucket){\n        // and current valuation is above the bucket\n        if(self.totalValuation > self.currentBucket){\n          _proposedCommit = self.valuationSums[self.currentBucket].add(_proposedCommit);\n        }\n\n        if(_proposedCommit >= self.currentBucket){\n          _proposedValue = self.currentBucket;\n        } else {\n          // if we are still below the current bucket then we need to iterate\n          loop = true;\n        }\n      } else {\n        if(self.totalValuation == self.currentBucket){\n          _proposedValue = self.totalValuation;\n        } else {\n          _proposedValue = _proposedCommit;\n        }\n      }\n\n      if(loop){\n        // if we're going to loop we move to the previous bucket\n        (exists,_currentBucket) = self.valuationsList.getAdjacent(self.currentBucket, PREV);\n        while(_proposedCommit <= _currentBucket){\n          // while we are proposed lower than the previous bucket we add commitments\n          _proposedCommit = self.valuationSums[_currentBucket].add(_proposedCommit);\n          // and iterate to the previous\n          if(_proposedCommit >= _currentBucket){\n            _proposedValue = _currentBucket;\n          } else {\n            (exists,_currentBucket) = self.valuationsList.getAdjacent(_currentBucket, PREV);\n          }\n        }\n\n        if(_proposedValue == 0) { _proposedValue = _proposedCommit; }\n\n        self.currentBucket = _currentBucket;\n      }\n\n      self.totalValuation = _proposedValue;\n      self.valueCommitted = _proposedCommit;\n    }\n\n    LogBidWithdrawn(msg.sender, refundWei, self.personalCaps[msg.sender]);\n    BucketAndValuationAndCommitted(self.currentBucket, self.totalValuation, self.valueCommitted);\n    return true;\n  }\n\n  /// @dev This should be called once the sale is over to commit all bids into\n  ///      the owner's bucket.\n  /// @param self stored crowdsale from crowdsale contract\n\n  //g !!! Shouldn't this just be callable by the owner !!!\n  function finalizeSale(InteractiveCrowdsaleStorage storage self) public\n           saleEndedNotFinal(self)\n           returns (bool)\n  {\n    setCanceled(self);\n\n    self.isFinalized = true;\n    require(launchToken(self));\n    //g may need to be computed due to EVM rounding errors\n    uint256 computedValue;\n\n    //g if it has not been canceld then calculate the ownerBalance\n    if(!self.isCanceled){\n      if(self.totalValuation == self.currentBucket){\n        // calculate the fraction of each minimal valuation bidders ether and tokens to refund\n        self.q = ((((self.valueCommitted.sub(self.totalValuation)).mul(100)))/self.valuationSums[self.totalValuation]).add(uint256(1));\n        computedValue = self.valueCommitted.sub(self.valuationSums[self.totalValuation]);\n        computedValue = computedValue.add(((uint256(100).sub(self.q)).mul(self.valuationSums[self.totalValuation]))/100);\n      } else {\n        // no computation necessary\n        computedValue = self.totalValuation;\n      }\n      self.ownerBalance = computedValue;  // sets ETH raised in the sale to be ready for withdrawal\n    }\n  }\n\n  /// @dev Mints the token being sold by taking the percentage of the token supply\n  ///      being sold in this sale along with the valuation, derives all necessary\n  ///      values and then transfers owner tokens to the owner.\n  /// @param self Stored crowdsale from crowdsale contract\n  function launchToken(InteractiveCrowdsaleStorage storage self) private returns (bool) {\n    // total valuation of all the tokens not including the bonus\n    uint256 _fullValue = (self.totalValuation.mul(100))/uint256(self.percentBeingSold);\n    // total valuation of bonus tokens\n    uint256 _bonusValue = ((self.totalValuation.mul(self.priceBonusPercent.add(100)))/100).sub(self.totalValuation);\n    // total supply of all tokens not including the bonus\n    uint256 _supply = (_fullValue.mul(self.tokensPerEth))/1000000000000000000;\n    // total number of bonus tokens\n    uint256 _bonusTokens = (_bonusValue.mul(self.tokensPerEth))/1000000000000000000;\n    // tokens allocated to the owner of the sale\n    uint256 _ownerTokens = _supply.sub((_supply.mul(uint256(self.percentBeingSold)))/100);\n    // total supply of tokens including the bonus tokens\n    uint256 _totalSupply = _supply.add(_bonusTokens);\n\n    // deploy new token contract with total number of tokens\n    self.token = new InteractiveCrowdsaleToken(address(this),\n                                               self.tokenInfo.name,\n                                               self.tokenInfo.symbol,\n                                               self.tokenInfo.decimals,\n                                               _totalSupply);\n\n\n    if(!self.isCanceled){\n      //g only the owner tokens go to the owner\n      self.token.transfer(self.owner, _ownerTokens);\n    } else {\n      //g if the sale got canceled, then all the tokens go to the owner and bonus tokens are burned\n      self.token.transfer(self.owner, _supply);\n      self.token.burnToken(_bonusTokens);\n    }\n    // the owner of the crowdsale becomes the new owner of the token contract\n    self.token.changeOwner(self.owner);\n    self.startingTokenBalance = _supply.sub(_ownerTokens);\n\n    return true;\n  }\n\n  /// @dev returns a boolean indicating if the sale is canceled.\n  ///      This can either be if the minimum raise hasn't been met\n  ///      or if it is 30 days after the sale and the owner hasn't finalized the sale.\n  /* That's a weird condition */\n  /// @return bool canceled indicating if the sale is canceled or not\n  function setCanceled(InteractiveCrowdsaleStorage storage self) private returns(bool){\n    bool canceled = (self.totalValuation < self.minimumRaise) ||\n                    ((now > (self.endTime + 30 days)) && !self.isFinalized);\n\n    if(canceled) {self.isCanceled = true;}\n\n    return self.isCanceled;\n  }\n\n  /// @dev If the address' personal cap is below the pointer, refund them all their ETH.\n  ///      if it is above the pointer, calculate tokens purchased and refund leftoever ETH\n  /// @param self Stored crowdsale from crowdsale contract\n  /// @return bool success if the contract runs successfully\n  /* What should not happen here? */\n  function retrieveFinalResult(InteractiveCrowdsaleStorage storage self) public returns (bool) {\n    require(now > self.endTime); /* This ensure that the endTime is past */\n    require(self.personalCaps[msg.sender] > 0); /* This requires that  */\n\n    uint256 numTokens; /* setup some pointers */\n    uint256 remainder;\n\n    //g seriously ?\n    //g  self.isCanceled is checked twice and setCanceled is always true\n\n    if(!self.isFinalized){\n      require(setCanceled(self));\n    }\n\n    if (self.isCanceled) {\n      // if the sale was canceled, everyone gets a full refund\n      self.leftoverWei[msg.sender] = self.leftoverWei[msg.sender].add(self.hasContributed[msg.sender]);\n      self.hasContributed[msg.sender] = 0;\n      LogErrorMsg(self.totalValuation, \"Sale is canceled, all bids have been refunded!\");\n      return true;\n    }\n\n    if (self.personalCaps[msg.sender] < self.totalValuation) {\n\n      // full refund if personal cap is less than total valuation\n      self.leftoverWei[msg.sender] += self.hasContributed[msg.sender];\n\n      // set hasContributed to 0 to prevent participant from calling this over and over\n      self.hasContributed[msg.sender] = 0;\n\n      return withdrawLeftoverWei(self);\n\n    } else if (self.personalCaps[msg.sender] == self.totalValuation) {\n\n      // calculate the portion that this address has to take out of their bid\n      uint256 refundAmount = (self.q.mul(self.hasContributed[msg.sender]))/100;\n      uint256 dust = (self.q.mul(self.hasContributed[msg.sender]))%100;\n\n      // refund that amount of wei to the address\n      self.leftoverWei[msg.sender] = self.leftoverWei[msg.sender].add(refundAmount);\n\n      // subtract that amount the address' contribution\n      self.hasContributed[msg.sender] = self.hasContributed[msg.sender].sub(refundAmount);\n      if(dust > 0) {\n        self.leftoverWei[msg.sender] = self.leftoverWei[msg.sender].add(dust);\n        self.hasContributed[msg.sender] = self.hasContributed[msg.sender].sub(dust);\n      }\n    }\n\n    // calculate the number of tokens that the bidder purchased\n    (numTokens, remainder) = calculateTokenPurchase(self.hasContributed[msg.sender],\n                                                    self.pricePurchasedAt[msg.sender]);\n\n    self.withdrawTokensMap[msg.sender] = self.withdrawTokensMap[msg.sender].add(numTokens);\n    self.valueCommitted = self.valueCommitted.sub(remainder);\n    self.hasContributed[msg.sender] = self.hasContributed[msg.sender].sub(remainder);\n    self.leftoverWei[msg.sender] = self.leftoverWei[msg.sender].add(remainder);\n\n    // burn any extra bonus tokens\n    uint256 _fullBonus;\n    uint256 _fullBonusPrice = (self.tokensPerEth.mul(self.priceBonusPercent.add(100)))/100;\n    (_fullBonus, remainder) = calculateTokenPurchase(self.hasContributed[msg.sender], _fullBonusPrice);\n    uint256 _leftoverBonus = _fullBonus.sub(numTokens);\n\n    self.token.burnToken(_leftoverBonus);\n\n    self.hasContributed[msg.sender] = 0;\n\n    // send tokens and leftoverWei to the address calling the function\n    withdrawTokens(self);\n\n    withdrawLeftoverWei(self);\n\n  }\n\n  /// @dev Function called by purchasers to pull tokens\n  /// @param self Stored crowdsale from crowdsale contract\n  /// @return true if tokens were withdrawn\n  function withdrawTokens(InteractiveCrowdsaleStorage storage self) public returns (bool) {\n    bool ok;\n\n    if (self.withdrawTokensMap[msg.sender] == 0) {\n      LogErrorMsg(0, \"Sender has no tokens to withdraw!\");\n      return false;\n    }\n\n    if (msg.sender == self.owner) {\n      if(!self.isFinalized){\n        LogErrorMsg(0, \"Owner cannot withdraw extra tokens until after the sale!\");\n        return false;\n      }\n    }\n\n    uint256 total = self.withdrawTokensMap[msg.sender];\n    self.withdrawTokensMap[msg.sender] = 0;\n    ok = self.token.transfer(msg.sender, total); /* MYTHRIL: ==== CALL with gas to dynamic address ==== */\n    require(ok);\n    LogTokensWithdrawn(msg.sender, total);\n    return true;\n  }\n\n  /// @dev Function called by purchasers to pull leftover wei from their purchases\n  /// @param self Stored crowdsale from crowdsale contract\n  /// @return true if wei was withdrawn\n  function withdrawLeftoverWei(InteractiveCrowdsaleStorage storage self) public returns (bool) {\n    if (self.leftoverWei[msg.sender] == 0) {\n      LogErrorMsg(0, \"Sender has no extra wei to withdraw!\");\n      return false;\n    }\n\n    uint256 total = self.leftoverWei[msg.sender];\n    self.leftoverWei[msg.sender] = 0;\n    msg.sender.transfer(total);\n    LogWeiWithdrawn(msg.sender, total);\n    return true;\n  }\n\n  /// @dev send ether from the completed crowdsale to the owners wallet address\n  /// @param self Stored crowdsale from crowdsale contract\n  /// @return true if owner withdrew eth\n  /* FLAG: this function allows a withdrawal of the full ETH value. What if the participants still\n    have ETH to withdraw? */\n  function withdrawOwnerEth(InteractiveCrowdsaleStorage storage self) public returns (bool) {\n    require(msg.sender == self.owner);\n    require(self.ownerBalance > 0);\n    require(self.isFinalized);\n\n    uint256 amount = self.ownerBalance;\n    self.ownerBalance = 0;\n    self.owner.transfer(amount);\n    LogOwnerEthWithdrawn(msg.sender,amount,\"Crowdsale owner has withdrawn all funds!\");\n\n    return true;\n  }\n\n  function crowdsaleIsActive(InteractiveCrowdsaleStorage storage self) public view returns (bool) {\n    return (now >= self.startTime && now <= self.endTime);\n  }\n\n  function isBeforeWithdrawalLock(InteractiveCrowdsaleStorage storage self) public view returns (bool) {\n    return now < self.endWithdrawalTime;\n  }\n\n  function isAfterWithdrawalLock(InteractiveCrowdsaleStorage storage self) public view returns (bool) {\n    return now >= self.endWithdrawalTime;\n  }\n\n  function getPersonalCap(InteractiveCrowdsaleStorage storage self, address _bidder) public view returns (uint256) {\n    return self.personalCaps[_bidder];\n  }\n\n}\n",
  "sourcePath": "/Users/hackdom/Projects/ethereum-libraries-iico/contracts/InteractiveCrowdsaleLib.sol",
  "compiler": {
    "name": "solc",
    "version": "0.4.21+commit.dfe3193c.Emscripten.clang"
  },
  "schemaVersion": "2.0.0",
  "updatedAt": "2018-05-14T23:47:05.301Z"
}