{
  "contractName": "LinkedListLib",
  "abi": [
    {
      "constant": true,
      "inputs": [
        {
          "name": "self",
          "type": "LinkedListLib.LinkedList storage"
        }
      ],
      "name": "listExists",
      "outputs": [
        {
          "name": "",
          "type": "bool"
        }
      ],
      "payable": false,
      "stateMutability": "view",
      "type": "function"
    },
    {
      "constant": true,
      "inputs": [
        {
          "name": "self",
          "type": "LinkedListLib.LinkedList storage"
        },
        {
          "name": "_node",
          "type": "uint256"
        }
      ],
      "name": "nodeExists",
      "outputs": [
        {
          "name": "",
          "type": "bool"
        }
      ],
      "payable": false,
      "stateMutability": "view",
      "type": "function"
    },
    {
      "constant": true,
      "inputs": [
        {
          "name": "self",
          "type": "LinkedListLib.LinkedList storage"
        }
      ],
      "name": "sizeOf",
      "outputs": [
        {
          "name": "numElements",
          "type": "uint256"
        }
      ],
      "payable": false,
      "stateMutability": "view",
      "type": "function"
    },
    {
      "constant": true,
      "inputs": [
        {
          "name": "self",
          "type": "LinkedListLib.LinkedList storage"
        },
        {
          "name": "_node",
          "type": "uint256"
        }
      ],
      "name": "getNode",
      "outputs": [
        {
          "name": "",
          "type": "bool"
        },
        {
          "name": "",
          "type": "uint256"
        },
        {
          "name": "",
          "type": "uint256"
        }
      ],
      "payable": false,
      "stateMutability": "view",
      "type": "function"
    },
    {
      "constant": true,
      "inputs": [
        {
          "name": "self",
          "type": "LinkedListLib.LinkedList storage"
        },
        {
          "name": "_node",
          "type": "uint256"
        },
        {
          "name": "_direction",
          "type": "bool"
        }
      ],
      "name": "getAdjacent",
      "outputs": [
        {
          "name": "",
          "type": "bool"
        },
        {
          "name": "",
          "type": "uint256"
        }
      ],
      "payable": false,
      "stateMutability": "view",
      "type": "function"
    },
    {
      "constant": true,
      "inputs": [
        {
          "name": "self",
          "type": "LinkedListLib.LinkedList storage"
        },
        {
          "name": "_node",
          "type": "uint256"
        },
        {
          "name": "_value",
          "type": "uint256"
        },
        {
          "name": "_direction",
          "type": "bool"
        }
      ],
      "name": "getSortedSpot",
      "outputs": [
        {
          "name": "",
          "type": "uint256"
        }
      ],
      "payable": false,
      "stateMutability": "view",
      "type": "function"
    }
  ],
  "bytecode": "0x61055f610030600b82828239805160001a6073146000811461002057610022565bfe5b5030600052607381538281f300730000000000000000000000000000000000000000301460606040526004361061008f576000357c0100000000000000000000000000000000000000000000000000000000900463ffffffff168063352a714b1461009457806353d00bd4146100dd578063574047ac1461010d5780637bfa62fb14610158578063d99455bd14610184578063f593633c146101cb575b600080fd5b6100c760048080359060200190919080359060200190919080359060200190919080351515906020019091905050610204565b6040518082815260200191505060405180910390f35b6100f360048080359060200190919050506102be565b604051808215151515815260200191505060405180910390f35b6101376004808035906020019091908035906020019091908035151590602001909190505061033d565b60405180831515151581526020018281526020019250505060405180910390f35b61016e6004808035906020019091905050610399565b6040518082815260200191505060405180910390f35b6101a360048080359060200190919080359060200190919050506103e6565b6040518084151515158152602001838152602001828152602001935050505060405180910390f35b6101ea6004808035906020019091908035906020019091905050610478565b604051808215151515815260200191505060405180910390f35b60008060008061021388610399565b141561022257600092506102b4565b600086148061023757506102368787610478565b5b151561024257600080fd5b61024d87878661033d565b80925081935050505b600081141580156102675750808514155b80156102795750831515818610151514155b156102b057866000016000828152602001908152602001600020600085151515158152602001908152602001600020549050610256565b8092505b5050949350505050565b6000808260000160008081526020019081526020016000206000801515151581526020019081526020016000205414158061032557506000826000016000808152602001908152602001600020600060011515151581526020019081526020016000205414155b156103335760019050610338565b600090505b919050565b60008061034a8585610478565b151561035f5760008080905091509150610391565b600185600001600086815260200190815260200160002060008515151515815260200190815260200160002054915091505b935093915050565b60008060006103ab846000600161033d565b80925081935050505b6000811415156103df576103ca8482600161033d565b809250819350505082806001019350506103b4565b5050919050565b60008060006103f58585610478565b1515610411576000806000819150809050925092509250610471565b60018560000160008681526020019081526020016000206000801515151581526020019081526020016000205486600001600087815260200190815260200160002060006001151515158152602001908152602001600020549250925092505b9250925092565b600080836000016000848152602001908152602001600020600080151515158152602001908152602001600020541480156104de575060008360000160008481526020019081526020016000206000600115151515815260200190815260200160002054145b1561052857818360000160008081526020019081526020016000206000600115151515815260200190815260200160002054141561051f576001905061052d565b6000905061052d565b600190505b929150505600a165627a7a72305820f7928f33790fcdbfc300c54f6ea7e15567a4083f09faa48c1f1263bbd9410bcb0029",
  "source": "pragma solidity 0.4.21;\n\n/**\n * @title LinkedListLib\n * @author Darryl Morris (o0ragman0o) and Modular.network\n *\n * This utility library was forked from https://github.com/o0ragman0o/LibCLL\n * into the Modular-Network ethereum-libraries repo at https://github.com/Modular-Network/ethereum-libraries\n * It has been updated to add additional functionality and be more compatible with solidity 0.4.18\n * coding patterns.\n *\n * version 1.1.1\n * Copyright (c) 2017 Modular Inc.\n * The MIT License (MIT)\n * https://github.com/Modular-network/ethereum-libraries/blob/master/LICENSE\n *\n * The LinkedListLib provides functionality for implementing data indexing using\n * a circlular linked list\n *\n * Modular provides smart contract services and security reviews for contract\n * deployments in addition to working on open source projects in the Ethereum\n * community. Our purpose is to test, document, and deploy reusable code onto the\n * blockchain and improve both security and usability. We also educate non-profits,\n * schools, and other community members about the application of blockchain\n * technology. For further information: modular.network\n *\n *\n * THE SOFTWARE IS PROVIDED \"AS IS\", WITHOUT WARRANTY OF ANY KIND, EXPRESS\n * OR IMPLIED, INCLUDING BUT NOT LIMITED TO THE WARRANTIES OF\n * MERCHANTABILITY, FITNESS FOR A PARTICULAR PURPOSE AND NONINFRINGEMENT.\n * IN NO EVENT SHALL THE AUTHORS OR COPYRIGHT HOLDERS BE LIABLE FOR ANY\n * CLAIM, DAMAGES OR OTHER LIABILITY, WHETHER IN AN ACTION OF CONTRACT,\n * TORT OR OTHERWISE, ARISING FROM, OUT OF OR IN CONNECTION WITH THE\n * SOFTWARE OR THE USE OR OTHER DEALINGS IN THE SOFTWARE.\n*/\n\n\nlibrary LinkedListLib {\n\n    uint256 constant NULL = 0;\n    uint256 constant HEAD = 0;\n    bool constant PREV = false;\n    bool constant NEXT = true;\n\n    struct LinkedList{\n        mapping (uint256 => mapping (bool => uint256)) list;\n    }\n\n    /// @dev returns true if the list exists\n    /// @param self stored linked list from contract\n    function listExists(LinkedList storage self)\n        public\n        view returns (bool)\n    {\n        // if the head nodes previous or next pointers both point to itself, then there are no items in the list\n        if (self.list[HEAD][PREV] != HEAD || self.list[HEAD][NEXT] != HEAD) {\n            return true;\n        } else {\n            return false;\n        }\n    }\n\n    /// @dev returns true if the node exists\n    /// @param self stored linked list from contract\n    /// @param _node a node to search for\n    function nodeExists(LinkedList storage self, uint256 _node)\n        public\n        view returns (bool)\n    {\n        if (self.list[_node][PREV] == HEAD && self.list[_node][NEXT] == HEAD) {\n            if (self.list[HEAD][NEXT] == _node) {\n                return true;\n            } else {\n                return false;\n            }\n        } else {\n            return true;\n        }\n    }\n\n    /// @dev Returns the number of elements in the list\n    /// @param self stored linked list from contract\n    function sizeOf(LinkedList storage self) public view returns (uint256 numElements) {\n        bool exists;\n        uint256 i;\n        (exists,i) = getAdjacent(self, HEAD, NEXT);\n        while (i != HEAD) {\n            (exists,i) = getAdjacent(self, i, NEXT);\n            numElements++;\n        }\n        return;\n    }\n\n    /// @dev Returns the links of a node as a tuple\n    /// @param self stored linked list from contract\n    /// @param _node id of the node to get\n    function getNode(LinkedList storage self, uint256 _node)\n        public view returns (bool,uint256,uint256)\n    {\n        if (!nodeExists(self,_node)) {\n            return (false,0,0);\n        } else {\n            return (true,self.list[_node][PREV], self.list[_node][NEXT]);\n        }\n    }\n\n    /// @dev Returns the link of a node `_node` in direction `_direction`.\n    /// @param self stored linked list from contract\n    /// @param _node id of the node to step from\n    /// @param _direction direction to step in\n    function getAdjacent(LinkedList storage self, uint256 _node, bool _direction)\n        public view returns (bool,uint256)\n    {\n        if (!nodeExists(self,_node)) {\n            return (false,0);\n        } else {\n            return (true,self.list[_node][_direction]);\n        }\n    }\n\n    /// @dev Can be used before `insert` to build an ordered list\n    /// @param self stored linked list from contract\n    /// @param _node an existing node to search from, e.g. HEAD.\n    /// @param _value value to seek\n    /// @param _direction direction to seek in\n    //  @return next first node beyond '_node' in direction `_direction`\n    function getSortedSpot(LinkedList storage self, uint256 _node, uint256 _value, bool _direction)\n        public view returns (uint256)\n    {\n        if (sizeOf(self) == 0) { return 0; }\n        require((_node == 0) || nodeExists(self,_node));\n        bool exists;\n        uint256 next;\n        (exists,next) = getAdjacent(self, _node, _direction);\n        while  ((next != 0) && (_value != next) && ((_value < next) != _direction)) next = self.list[next][_direction];\n        return next;\n    }\n\n    /// @dev Creates a bidirectional link between two nodes on direction `_direction`\n    /// @param self stored linked list from contract\n    /// @param _node first node for linking\n    /// @param _link  node to link to in the _direction\n    function createLink(LinkedList storage self, uint256 _node, uint256 _link, bool _direction) private  {\n        self.list[_link][!_direction] = _node;\n        self.list[_node][_direction] = _link;\n    }\n\n    /// @dev Insert node `_new` beside existing node `_node` in direction `_direction`.\n    /// @param self stored linked list from contract\n    /// @param _node existing node\n    /// @param _new  new node to insert\n    /// @param _direction direction to insert node in\n    function insert(LinkedList storage self, uint256 _node, uint256 _new, bool _direction) internal returns (bool) {\n        if(!nodeExists(self,_new) && nodeExists(self,_node)) {\n            uint256 c = self.list[_node][_direction];\n            createLink(self, _node, _new, _direction);\n            createLink(self, _new, c, _direction);\n            return true;\n        } else {\n            return false;\n        }\n    }\n\n    /// @dev removes an entry from the linked list\n    /// @param self stored linked list from contract\n    /// @param _node node to remove from the list\n    function remove(LinkedList storage self, uint256 _node) internal returns (uint256) {\n        if ((_node == NULL) || (!nodeExists(self,_node))) { return 0; }\n        createLink(self, self.list[_node][PREV], self.list[_node][NEXT], NEXT);\n        delete self.list[_node][PREV];\n        delete self.list[_node][NEXT];\n        return _node;\n    }\n\n    /// @dev pushes an enrty to the head of the linked list\n    /// @param self stored linked list from contract\n    /// @param _node new entry to push to the head\n    /// @param _direction push to the head (NEXT) or tail (PREV)\n    function push(LinkedList storage self, uint256 _node, bool _direction) internal  {\n        insert(self, HEAD, _node, _direction);\n    }\n\n    /// @dev pops the first entry from the linked list\n    /// @param self stored linked list from contract\n    /// @param _direction pop from the head (NEXT) or the tail (PREV)\n    function pop(LinkedList storage self, bool _direction) internal returns (uint256) {\n        bool exists;\n        uint256 adj;\n\n        (exists,adj) = getAdjacent(self, HEAD, _direction);\n\n        return remove(self, adj);\n    }\n}\n",
  "sourcePath": "ethereum-libraries-linked-list/contracts/LinkedListLib.sol",
  "compiler": {
    "name": "solc",
    "version": "0.4.21+commit.dfe3193c.Emscripten.clang"
  },
  "schemaVersion": "2.0.0",
  "updatedAt": "2018-05-14T23:47:05.315Z"
}